:020000040800F2
:1000000000000120C5020008CD020008D10200084E
:1000100045030008490300089103000800000000A0
:10002000000000000000000000000000D9030008EC
:10003000DD03000800000000E1030008E5030008FC
:10004000F5030008F5030008F5030008F5030008B0
:10005000F5030008F5030008F5030008F5030008A0
:10006000F5030008F5030008F5030008A10C0008DB
:10007000B10C0008C10C0008D10C0008E10C00080C
:10008000F10C0008010D0008F50300080000000055
:10009000000000000000000000000000F503000860
:1000A000F5030008F5030008F5030008F503000850
:1000B000F5030008F5030008F5030008F503000840
:1000C000F5030008F5030008F5030008F503000830
:1000D000F503000875160008F5030008000000008D
:1000E000F5030008F5030008F50300080000000010
:1000F000000000000000000000000000110D0008DA
:1001000000000000F5030008F5030008F5030008EF
:1001100000000000000000000000000000000000DF
:10012000210D0008310D0008410D0008510D000897
:10013000610D000800000000000000000000000049
:10014000000000000000000000000000F5030008AF
:10015000710D0008810D0008910D0008F5030008DD
:10016000F5030008F503000800000000000000008F
:10017000000000000000000000000000000000007F
:1001800000000000F503000800000000000000006F
:10019000F503000800B583B000F0BCF9384B394ACC
:1001A0001360394A136039490CE00A684B6801F161
:1001B0000C04886803E01168196004330432984223
:1001C000F9D82146324B9942EFD32E4B1A68314B66
:1001D0009A4204D12C4B1A682F4B9A4200D0FEE76A
:1001E000274B2E4A13602E4A13602E4B0AE0194605
:1001F00051F8082B5B6802E00020106004329A423C
:10020000FAD30B46284A9342F1D3244B1B6813B907
:10021000234B1B6803B1FEE700F088F9694601A88B
:1002200000F022F9214C224B1C1BA410002504E0F5
:100230001E4B53F8253098470135AC42F8DC1D4C75
:100240001D4B1C1BA410002504E01A4B53F825304D
:1002500098470135AC42F8DC0099019801F054FA56
:100260000546164C164B1C1BA41004E0013C134B16
:1002700053F824309847002CF8DC284600F0D0F8DA
:10028000BABADECA0000002078000020F803000897
:100290001004000878563412325476987C000020FE
:1002A000C44F0020100400082004000820040008A7
:1002B000200400082004000820040008200400088E
:1002C0002004000808B5FFF765FF00BF00BEFEE789
:1002D0001EF0040F0CBFEFF30880EFF309807146A6
:1002E000414A10472DE9F04182B004468846134B3D
:1002F0005E6B9F6B9D6A1B6B13F0020F0DD00F4B53
:10030000DB6A002B09DA4BF6AB6100F08BF920B108
:100310004FF00042094BDA620CE0094800F0ACF8FB
:10032000CDF800803B4632462946204600F002F9CF
:1003300000BEFEE702B0BDE8F08100BF00ED00E0C6
:10034000A421000800BEFEE71EF0040F0CBFEFF36F
:100350000880EFF309807146244A10472DE9F041E7
:1003600082B004468846084B5E6B9F6B9D6A0748C7
:1003700000F082F8CDF800803B4632462946204600
:1003800000F0D8F800BEFEE700ED00E0B421000860
:100390001EF0040F0CBFEFF30880EFF309807146E5
:1003A000134A10472DE9F04182B004468846084BB5
:1003B0005E6B9F6B9D6A074800F05EF8CDF8008089
:1003C0003B4632462946204600F0B4F800BEFEE720
:1003D00000ED00E0C021000800BEFEE700BEFEE721
:1003E00000BEFEE770470000E50200085D0300085C
:0803F000A503000800BEFEE7B2
:1003F80028230008000000207C0000202823000893
:1004080000000010000000107C000020C84F0020F1
:080418000000001000000010BC
:10042000FEE700BF08B50D4B1B6813B90C4A0B4B18
:100430001A600A4B1A68C31C23F0030313440949CA
:100440008B4206D901F066F90C2303604FF0FF30B0
:1004500008BD02490B60104608BD00BF80000020A7
:10046000C84F002000FC002001230360014B0B60FB
:10047000704700BF040000200FB400B583B004AB88
:1004800053F8042B01938021064801F0A1F90028BC
:1004900003DD0146034800F039F803B05DF804EBD2
:1004A00004B07047880000202DE9F04385B0044671
:1004B0000F46435613BB042528462146ABBE0446CF
:1004C0001FE03546102E28BF1025002306E014F942
:1004D000011B04AA1A4402F8101C0133AB42F6D3E4
:1004E00004AA1344002203F8102CE9464FF0040834
:1004F00040464946ABBE8046761B00E00E46002EC5
:10050000DFD1384605B0BDE8F08300BF08B5FFF77E
:10051000CBFF08BD08B500F095F8024B024A9A607F
:1005200008BD00BF00ED00E00000000808B500F0C5
:10053000A9F808BDF8B504460D4617461E462648DC
:10054000FFF79AFF21682548FFF796FF6168244866
:10055000FFF792FFA1682348FFF78EFFE16822486A
:10056000FFF78AFF21692148FFF786FF616920486C
:10057000FFF782FFA1691F48FFF77EFFE1691E4870
:10058000FFF77AFF1D48FFF777FF29461C48FFF762
:1005900073FF1C4CE16A1C48FFF76EFF216B1B4880
:1005A000FFF76AFFE16B1A48FFF766FF15F0800F4F
:1005B00003D039461748FFF75FFF15F4004F03D00B
:1005C00031461548FFF758FF1448FFF755FF0699C5
:1005D0001348FFF751FFF8BD882000089820000855
:1005E000A8200008B8200008C8200008D82000086B
:1005F000E8200008F8200008082100081821000859
:100600002421000800ED00E0342100084421000806
:100610005421000864210008742100088421000886
:100620008C21000883691A888A4207D10268033A3C
:10063000012A05D8023383610120704700207047EA
:10064000002070470C4B1A6842F001021A6000212A
:1006500099601A6822F0847222F480321A60074A84
:100660005A601A6822F480221A60D9604FF0006242
:10067000034B9A60704700BF0038024010300024DE
:1006800000ED00E0224B9B6803F00C03042B07D025
:10069000082B09D0002B2DD11E4A1F4B1A602CE0CD
:1006A0001E4A1D4B1A6028E0194B5A685B6803F01C
:1006B0003F0312F4800F09D0184AB2FBF3F2144B37
:1006C0005B68C3F3881303FB02F208E0114AB2FB34
:1006D000F3F30F4A5168C1F3881101FB03F20C4B8D
:1006E0005B68C3F3014301335B00B2FBF3F30A4AD7
:1006F000136002E0074A084B1A60054B9B68C3F37E
:100700000313074AD15C044A1368CB401360704757
:10071000003802400024F4000C00002040787D01E5
:10072000D02100080246A0F13003D8B2092809D927
:10073000A2F14103DBB2052B03D8A2F13700C0B20E
:1007400070470020704700BF2DE9F04F83B0054689
:10075000007AFFF7E7FF052800F2D180DFE810F00C
:100760004B000600CF00CF000C0022000023654A9A
:100770001380654A1370C2E0687AFFF7D3FF04075D
:10078000A87AFFF7CFFF44EA0064E87AFFF7CAFFD0
:1007900044EA0054287BFFF7C5FF44EA00405B4B66
:1007A0001860ACE0687AFFF7BDFF0407A87AFFF78E
:1007B000B9FF44EA0064E87AFFF7B4FF44EA005462
:1007C000287BFFF7AFFF44EA0044687BFFF7AAFFEE
:1007D00044EA0034A87BFFF7A5FF44EA0024E87B45
:1007E000FFF7A0FF44EA0014287CFFF79BFF20439B
:1007F000474B186083E0444B1B78C3B90122424B3E
:100800001A70E878FFF78EFF04032879FFF78AFF54
:1008100044EA00246879FFF785FF44EA0014A879C8
:10082000FFF780FF2043394B1C682043186068782D
:10083000FFF778FF0401A878FFF774FF2043C3B2E5
:1008400019460093334B1A688A1801921A600026E1
:100850002DE0DFF8B0A0BAF800B00BF10107BFB28D
:10086000B40004F10903E85CFFF75CFF4FEA0018ED
:1008700004F10A03E85CFFF755FFDFF89C9048EAB3
:10088000000009F80B007B1CAAF8003004F10B03F0
:10089000E85CFFF747FF4FEA00180C34285DFFF7CC
:1008A00041FF48EA000009F807000136F6B2009B54
:1008B0005B089E42CDD3009A12F0010F1FD0114F5A
:1008C000B7F8008008F10106B6B29C0004F10903F4
:1008D000E85CFFF727FF4FEA001904F10A03E85C20
:1008E000FFF720FF0C4B49EA000003F80800721CD8
:1008F0003A80FF229A55019B0133064A136003B0E8
:10090000BDE8F08F0A0100200801002064010020EA
:10091000600100209C010020A001002070B588B07B
:100920000121172000F0AAFB0121182000F0A6FBEE
:100930000121002000F0A2FB10268DF81060092391
:100940008DF812302A4D059503248DF811400DEBDA
:10095000060000F04BFB8DF818600A238DF81A3062
:1009600007958DF8194006A800F040FB8DF800604F
:100970000B238DF8023001958DF80140684600F098
:1009800035FB8DF808600C268DF80A6003958DF80C
:10099000094002A800F02AFB16484FF416534361A1
:1009A000154B0360466000230361C360836001232D
:1009B00080F8303000F0CAFD104A136843F4082371
:1009C00043F4EE631360252000F048FB472000F05D
:1009D00045FB00F05FFD00F033FA0949094800F0DB
:1009E00047FA0949094800F063FA08B070BD00BF32
:1009F0000000024068010020001401402400024071
:100A0000E0210008EC210008F4210008F82100088A
:100A1000F0B59BB000238DF8663030269349262030
:100A200000F0A4FA8DF867000022914B1A609DF83F
:100A30006730DBB29E4200F0138186F001068D49DB
:100A40008D4800F035FA8D4C22468D492E2000F05D
:100A50004FFA0022864B1A602246531C11781A4620
:100A60003A29FAD185481A782B2A05D15A1C1978C7
:100A700013463A29FAD10AE00D2A03D00A2A01D0F6
:100A8000202A01D1023302E00133027001305A788A
:100A90004C2AE8D13A2303705A234370002422469B
:100AA0000023581C541CA4B274498A5C1AAD2B4410
:100AB00003F8682C2546095D224643B23A29F0D155
:100AC0006846FFF741FE01356C4B5B5D5A2BE6D162
:100AD000674B19686B48FFF7CFFC6B4B19686B4885
:100AE000FFF7CAFC6A4B19686A48FFF7C5FC6A4CF5
:100AF0005521204600F09EFD0DF16601204600F0D4
:100B0000AFFD9DF86630AA2BF1D1634C1021204631
:100B100000F090FD0DF16601204600F0A1FD9DF86A
:100B20006630202BF1D13421204600F083FD0DF1F9
:100B30006601204600F094FD534DE978204600F010
:100B400079FDA978204600F075FD6978204600F00F
:100B500071FD2978204600F06DFD454DE97820466D
:100B600000F068FDA978204600F064FD6978204611
:100B700000F060FD2978204600F05CFD444DE978E6
:100B8000204600F057FDA978204600F053FD697813
:100B9000204600F04FFD2978204600F04BFD0DF176
:100BA0006601204600F05CFD9DF86630442BFBD1C9
:100BB0000025394C3621204600F03CFD0DF1660140
:100BC000204600F04DFD9DF866103448FFF754FCB8
:100BD0002F46274B1B685B1BB3F5806F0AD200249E
:100BE0001DE02B19254AD15C2B4800F023FD013470
:100BF000A4B200E00024B4F5806FF2D30DF16601D9
:100C0000254800F02DFD05F58065ADB213E02B19E8
:100C10001A4AD15C204800F00DFD0134A4B2144BF7
:100C20001B68DB1B9C42F2D30DF166011A4800F0F1
:100C300017FD0F4B1D880E4B1B689D42B9D1164CFA
:100C40003721204600F0F6FC0DF16601204600F049
:100C500007FD9DF866104729F1D11048FFF70CFCFD
:100C60000449054800F024F9D8E600BF082200082E
:100C70009C010020F4210008F8210008A0010020B8
:100C80002C22000858220008600100206822000879
:100C900064010020782200086801002088220008F2
:100CA00008B5024B1B6803B1984708BD0C01002032
:100CB00008B5024B5B6803B1984708BD0C010020E2
:100CC00008B5024B9B6803B1984708BD0C01002092
:100CD00008B5024BDB6803B1984708BD0C01002042
:100CE00008B5024B1B6903B1984708BD0C010020F1
:100CF00008B5024B5B6903B1984708BD0C010020A1
:100D000008B5024B9B6903B1984708BD0C01002050
:100D100008B5024BDB6903B1984708BD0C01002000
:100D200008B5024B1B6A03B1984708BD0C010020AF
:100D300008B5024B5B6A03B1984708BD0C0100205F
:100D400008B5024B9B6A03B1984708BD0C0100200F
:100D500008B5024BDB6A03B1984708BD0C010020BF
:100D600008B5024B1B6B03B1984708BD0C0100206E
:100D700008B5024B5B6B03B1984708BD0C0100201E
:100D800008B5024B9B6B03B1984708BD0C010020CE
:100D900008B5024BDB6B03B1984708BD0C0100207E
:100DA00010B59AB06422002101A800F0B9FC00241B
:100DB00007E044F6206101AB181900F0A5FB0134EF
:100DC000E4B2642CF5D900230EE01AAA1A4412F8F2
:100DD000642C3A2A06D15A1C1AA90A4412F8641C37
:100DE0000E4A11700133DBB2452BEED900230EE021
:100DF0001AAA1A4412F8642C4F2A06D15A1C1AA9AE
:100E00000A4412F8642C4B2A05D00133DBB2632B61
:100E1000EED9002000E001201AB010BDC04F002024
:100E200070B50646002435190449284600F06CFBCD
:100E300001342B78FF2BF6D1012070BD80841E0079
:100E400008B5002004E0084800F050FBFFF7A8FFB9
:100E50000028F8D0002004E0044800F047FBFFF72A
:100E60009FFF0028F8D008BD8C22000894220008BB
:100E700038B505460C46002010E00A4800F036FB65
:100E8000284600F033FB084800F030FB204600F015
:100E90002DFB064800F02AFBFFF782FF0028ECD06C
:100EA00038BD00BFA4220008C8220008B4220008F0
:100EB00038B505460C46002010E00A4800F016FB45
:100EC000284600F013FB084800F010FB204600F015
:100ED0000DFB064800F00AFBFFF762FF0028ECD08C
:100EE00038BD00BFB8220008CC22000890220008BC
:100EF00070B592B00E46154600240E940F941094CF
:100F00001194154B00930346144A15490EA800F09E
:100F10000FFC204604E00EA800F0E8FAFFF740FFBF
:100F20000028F8D03022002102A800F0F9FB0A4B7B
:100F3000009333460B4A0C4902A800F0F9FB00204D
:100F400005E002A800F0D2FA2846FFF769FF002862
:100F5000F7D012B070BD00BF90220008D022000868
:100F6000DC220008E4220008EC22000830B593B02F
:100F70000D4600240E940F941094CDF84340154B69
:100F800000930346144A15490EA800F0D1FB2046F1
:100F900004E00EA800F0AAFAFFF702FF0028F8D03C
:100FA0003022002102A800F0BBFB0A4B00932B4625
:100FB0000B4A0C4902A800F0BBFB002004E002A889
:100FC00000F094FAFFF7ECFE0028F8D0064B1878F2
:100FD00013B030BD90220008D0220008DC220008A7
:100FE000E4220008EC220008C04F0020F0B50246C1
:100FF00043680178C1F3C105C1F3800701F0030123
:10100000186896787600032404FA06FE20EA0E009B
:1010100005FA06F6304318605D689678012000FAFC
:1010200006FE25EA0E0507FA06F635435D60DD6823
:101030009678864004FA06F725EA0705B140294369
:10104000D96099689578AC4021EA040152788540CE
:1010500002FA05F529439960F0BD00BF00F01F01B9
:10106000C0F34710044B1A6801238B4052F820103C
:101070000B4342F82030704710000020082800F28F
:101080008880082800F20182DFE800F00513212F94
:101090003D4B59677500012905D1984A136843F003
:1010A000010313607047954A136823F0010313602E
:1010B0007047012905D1914A136843F00203136078
:1010C00070478E4A136823F00203136070470129AA
:1010D00005D18A4A136843F0040313607047874AB6
:1010E000136823F0040313607047012905D1834A74
:1010F000136843F0080313607047804A136823F0B5
:10110000080313607047012905D17C4A136843F036
:10111000100313607047794A136823F010031360BB
:101120007047012905D1754A136843F080031360A5
:101130007047724A136823F08003136070470129D7
:1011400005D16E4A136843F48053136070476B4AAD
:10115000136823F4805313607047012905D1674A4F
:10116000136843F4001313607047644A136823F450
:10117000001313607047012905D1604A136843F4D6
:101180008003136070475D4A136823F48003136083
:10119000704709280DD1012905D1594A136843F038
:1011A000800313607047564A136823F0800313606E
:1011B0007047A0F10A03DBB20B2B00F2C1800A38A2
:1011C0000B2800F26281DFE810F00C001A00280002
:1011D00036004400520060006E007C008A009F00D0
:1011E000AD00012905D1474A136843F0010313609C
:1011F0007047444A136823F00103136070470129C4
:1012000005D1404A136843F00203136070473D4A1A
:10121000136823F0020313607047012905D1394A8E
:10122000136843F0040313607047364A136823F0D1
:10123000040313607047012905D1324A136843F053
:101240000803136070472F4A136823F008031360E4
:101250007047012905D12B4A136843F400631360DA
:101260007047284A136823F400631360704701290C
:1012700005D1244A136843F4804313607047214A20
:10128000136823F4804313607047012905D11D4A78
:10129000136843F40043136070471A4A136823F439
:1012A000004313607047012905D1164A136843F4BF
:1012B000003313607047134A136823F4003313603C
:1012C0007047012905D10F4A136843F400131360D6
:1012D00070470C4A136823F4001313607047012908
:1012E00005D1084A136843F4800313607047054A28
:1012F000136823F480031360704700BF3038024046
:101300003438024040380240012905D15F4A136851
:1013100043F40003136070475C4A136823F400032E
:1013200013607047012905D1584A136843F0805370
:1013300013607047554A136823F080531360704759
:1013400016380A2800F2A180DFE800F006142230E7
:101350003E4C5A6876849200012905D14C4A1368A4
:1013600043F0010313607047494A136823F00103F7
:1013700013607047012905D1454A136843F01003F3
:1013800013607047424A136823F0100313607047DC
:10139000012905D13E4A136843F0200313607047CA
:1013A0003B4A136823F0200313607047012905D1DD
:1013B000374A136843F4807313607047344A1368E4
:1013C00023F4807313607047012905D1304A1368F4
:1013D00043F40063136070472D4A136823F40063DD
:1013E00013607047012905D1294A136843F48053DB
:1013F00013607047264A136823F4805313607047C4
:10140000012905D1224A136843F400531360704741
:101410001F4A136823F4005313607047012905D154
:101420001B4A136843F4804313607047184A1368DB
:1014300023F4804313607047012905D1144A1368CF
:1014400043F4803313607047114A136823F48033E8
:1014500013607047012905D10D4A136843F4003326
:10146000136070470A4A136823F40033136070470F
:10147000012905D1064A136843F48023136070479D
:10148000034A136823F480231360704740380240F6
:10149000443802400A4B8B229A60DA6842F40052C8
:1014A000DA6000221A615A61D968D960D96841F0BE
:1014B0000401D960D96841F40051D9601A607047BD
:1014C00000100140084BDA6842F00802DA60027846
:1014D0005A60054B1B6813F0400FFAD0024AD368DC
:1014E00023F00803D36070470010014038B505466B
:1014F000002403E0FFF7E6FF0134E4B228192B5D76
:10150000002BF7D138BD00BF002305E001338B422B
:1015100002D1FF22027004E0054A126812F0200F87
:10152000F4D08B4202D0024B5B680370704700BF5F
:1015300000100140034602681068002151601A68DB
:10154000136823F040031360704700BF002860D089
:10155000034690F83020012A5DD110B4002280F8B3
:1015600030200468E26822F4405121F00C01406808
:101570001A6910439A6802430A4342F40042E26047
:101580001868026922F44051DA680A430261186857
:10159000234A904203D0A2F58062904216D1596945
:1015A000C900204AB2FBF1F41F4AB2FBF1F26421F8
:1015B00001FB1421C9001D4AA2FB0112520901328C
:1015C00002F0070242EA0412826018E0184A9042D0
:1015D00015D15969C900134AB2FBF1F4124AB2FBA2
:1015E000F1F2642101FB14210901104AA2FB01124E
:1015F0005209013202F0070242EA041282601968BD
:10160000CA6842F40052CA60012283F830200020E8
:1016100003E0022070470320704710BC704700BFF2
:10162000001401400024F40000105E5F1F85EB51A0
:10163000004400400368596041F2883300E0013BF8
:101640000268116811F0400F01D1002BF7D1136827
:1016500013F0400F01D0002070470120704700BFF9
:1016600003681A6812F0200FFAD05B680B70002034
:10167000704700BF38B5214B1A6813681C68DD68D5
:1016800014F0400F1CD015F0400F19D0116A90696A
:1016900081420FD1012182F83010DA6822F0400235
:1016A000DA60174B1B6803B19847144B1868FFF7B3
:1016B00041FF05E0906A415C5960136A013313628F
:1016C00014F0200F18D015F0200F15D00B4B1B680D
:1016D000D96A5A6A1868406888545A6A01325A624C
:1016E000D9698A4208D11A68D36823F02003D360ED
:1016F000044B1B6803B1984738BD00BF4C01002064
:10170000480100205001002008B5FFF707F9FFF756
:101710007FF908BD014B1868704700BF74000020B6
:1017200002440346934202D003F8011BFAE77047D4
:101730000EB400B59CB04FF402711DABADF814109F
:10174000029006906FF000410A48049107914FF60D
:10175000FF7153F8042BADF816100068019302A92D
:1017600000F09EF8029B00221A701CB05DF804EB9A
:1017700003B070477400002030B5141E05469BB0BE
:10178000184604DA8B232B604FF0FF301DE04FF436
:101790000273ADF80C3014BF04F1FF3323460293FB
:1017A00005934FF6FF7300910491ADF80E30024699
:1017B0001E9B6946284600F073F8431CBCBF8B2370
:1017C0002B6014B1009B00221A701BB030BD0000CA
:1017D00007B5009313460A46014603480068FFF721
:1017E000CBFF03B05DF804FB740000202DE9F04747
:1017F0008E689E4282460C46914698463ED88A891B
:1018000012F4906F3AD0256809696F1A656902234E
:1018100005EB450595FBF3F57B1C43449D4238BF22
:101820001D4653050FD5294600F08EFB064698B19C
:101830003A46216900F014FBA38923F4906343F036
:101840008003A38113E02A4600F0DCFB064670B952
:101850002169504600F02AFB0C23CAF80030A38906
:1018600043F04003A3814FF0FF30BDE8F0872661CD
:1018700065613E44ED1B2660A5604646464528BF8F
:10188000464632464946206800F0F5FAA3689B1B9D
:10189000A36023681E4426600020BDE8F087000096
:1018A0002DE9F04F9DB0804603938B891C060D46B1
:1018B00016460DD50B695BB9402100F045FB286049
:1018C000286118B90C23C8F80030CDE040236B61C3
:1018D0000023099320238DF82930DFF89CB13023B1
:1018E0008DF82A3037463C4614F8013B1BB9B7EB5C
:1018F000060910D003E0252BF9D02746F3E74B4625
:10190000324629464046FFF771FF013000F0A780BC
:10191000099B4B4409933B78002B00F0A0800023E7
:101920004FF0FF3204930793059206938DF85330DE
:101930001A930126052221784E4800F041FA671CCF
:10194000049B38B14B4A801A06FA00F01843049001
:101950003C46EFE7D90644BF20228DF853201A07F2
:1019600044BF2B228DF8532022782A2A03D0079ACD
:1019700000210A200BE0039A111D12680391002A2E
:1019800010DA524243F00200079204900BE027461F
:1019900001343B78303B092B03D800FB0232012194
:1019A000F5E701B107923B782E2B1ED17B782A2BCD
:1019B0000AD1039B1A1D1B680392002BB8BF4FF07E
:1019C000FF330237059310E000230593781C194676
:1019D0000A24074601303A78303A092A03D804FB32
:1019E00001210123F5E703B105910322397822484B
:1019F00000F0E6F940B14023CBEB000003FA00F021
:101A0000049B18430490013739781C488DF828103E
:101A100006227E1C00F0D4F988B1194B33B9039B20
:101A2000073323F007030833039314E003AB009359
:101A30002A46144B04A94046AFF3008007E003ABED
:101A400000932A460F4B04A9404600F093F8B0F1EA
:101A5000FF3F824603D0099B5344099342E7AB8979
:101A60005B0601D4099801E04FF0FF301DB0BDE8DE
:101A7000F08F00BFF4220008FA220008FE220008BE
:101A800000000000ED1700082DE9F04791461F46C1
:101A90000A698B68DDF820809342B8BF1346C9F805
:101AA000003091F8432006460C4612B10133C9F8C4
:101AB00000302368990642BFD9F800300233C9F8D4
:101AC0000030256815F0060510D104F1190A07E069
:101AD0000123524639463046C04701301AD00135FD
:101AE000E368D9F800209B1A9D42F1DB94F843305B
:101AF0002268003318BF012392060FD5E1185A1C43
:101B0000302081F84300224494F8451082F84310B5
:101B1000023303E04FF0FF30BDE8F08704F14302E9
:101B200039463046C0470130F4D02268D9F8005019
:101B3000E36802F00602042A08BF5D1B2269A3685D
:101B40000CBF25EAE57500259342C4BF9B1AED182A
:101B50004FF000091A344D4509D001232246394679
:101B60003046C0470130D5D009F10109F3E7002024
:101B7000BDE8F0872DE9F04317460A7E85B06E2A4E
:101B8000984606460C460C9B01F1430E00F0AE80D1
:101B900011D8632A22D009D8002A00F0BB80582A25
:101BA00040F0CA8081F84520834955E0642A1ED060
:101BB000692A1CD0C0E0732A00F0B08009D86F2ACF
:101BC0002ED0702A40F0B8800A6842F020020A60E5
:101BD0003EE0752A24D0782A3AD0ADE01A6801F1A7
:101BE0004205111D1960136884F84230A8E021688D
:101BF0001A6811F0800F02D0111D196008E011F071
:101C0000400F02F10401196002D0B2F9003000E087
:101C10001368002B3CDA2D225B4284F8432037E026
:101C200021681A6811F0800F02D0111D196007E0B9
:101C300011F0400F02F10401196001D0138800E097
:101C40001368227E5C496F2A14BF0A2208221BE017
:101C500078225A4984F845202268186812F0800FCB
:101C600000F104051D6003D1550601D5038800E08D
:101C70000368D00744BF42F0200222601BB92268EB
:101C800022F0200222601022002084F8430001E0AC
:101C900049490A226568A560002D08DB206820F00C
:101CA000040020602BB9002D7DD175460CE0002B7F
:101CB00079D07546B3FBF2F002FB1033CB5C05F82C
:101CC000013D03460028F5D1082A0BD12368DA0725
:101CD00008D5236962689A42DEBF302305F8013CCB
:101CE00005F1FF35C5EB0E0323612EE008681A6885
:101CF000496910F0800F03D0101D1860136808E0C8
:101D000010F0400F02F104001860136801D0198030
:101D100000E0196000232361754616E01A68111D62
:101D20001960156862680021284600F049F808B17A
:101D3000401B6060636804E004F1420584F84220BF
:101D400001232361002384F84330CDF800803B4613
:101D500003AA21463046FFF797FE013002D14FF02B
:101D6000FF3026E023692A4639463046C047013015
:101D7000F5D023689B0710D5002504F1190907E069
:101D800001234A4639463046C0470130E7D0013585
:101D9000E368039A9B1A9D42F2DBE068039B98423A
:101DA000B8BF184605E00B7884F8423004F14205CC
:101DB0008AE705B0BDE8F083052300081623000874
:101DC00001F0FF01102A2BDB10F0070F08D010F8EC
:101DD000013B013A8B422DD010F0070F42B3F6D1F0
:101DE000F0B441EA012141EA014122F007047FF009
:101DF00000070023F0E80256083C85EA010586EA60
:101E0000010685FA47F5A3FA87F586FA47F6A5FA9B
:101E100087F68EB9EED1F0BC01F0FF0102F00702A7
:101E200032B110F8013B013A83EA010313B1F8D152
:101E30000020704701387047002D06BF3546033833
:101E4000073815F0010F07D1013015F4807F02BF6C
:101E5000013015F4C03F0130F0BC0138704700BFBD
:101E600010B5431E0A44914204D011F8014B03F807
:101E7000014FF8E710BD884210B501EB020301D80D
:101E8000421E0BE09842FBD28118D21AD34204D0F2
:101E900013F8014D01F8014DF8E710BD994204D047
:101EA00011F8014B02F8014FF8E710BD38B50546AF
:101EB000002946D051F8043C0C1F002BB8BFE41891
:101EC00000F0D6F81F4A1368114613B96360146016
:101ED00032E0A3420ED92268A018834204BF1868DA
:101EE0005B68636004BF121822600C6024E0A242A9
:101EF00003D813465A68002AF9D118681918A14264
:101F00000BD12168014458188242196014D110681D
:101F100052685A60014419600EE002D90C232B600C
:101F20000AE021686018824204BF1068526862604B
:101F300004BF091821605C602846BDE8384000F005
:101F400098B838BD5801002070B5CD1C25F00305A8
:101F500008350C2D38BF0C25002D064601DBA942A3
:101F600002D90C23336046E000F082F8234B1C6852
:101F70001A462146A1B10B685B1B0ED40B2B03D96B
:101F80000B60CC18CD501EE08C420DBF63684B68CF
:101F90006360136018BF0C4615E00C464968E9E71A
:101FA000174C23681BB9304600F052F820602946D0
:101FB000304600F04DF8431C18D0C41C24F0030434
:101FC000A0420DD12560304600F053F804F10B001B
:101FD000231D20F00700C31A0ED05A42E25070BDF4
:101FE000211A304600F034F80130EBD10C23336075
:101FF000304600F03EF8002070BD00BF58010020C0
:1020000054010020F8B5074615460E4621B9114681
:10201000BDE8F840FFF798BF1AB9FFF747FF284619
:10202000F8BD00F027F885420ED929463846FFF75B
:102030008BFF044650B131462A46FFF711FF314667
:102040003846FFF733FF01E03046F8BD2046F8BDC3
:1020500038B5064C0023054608462360FEF7E2F932
:10206000431C02D1236803B12B6038BD5C01002002
:102070007047704751F8040C0028BEBF091851F88A
:10208000043CC01804387047537461636B20667257
:10209000616D653A0A000000205230203D20202565
:1020A0003038580A00000000205231203D20202501
:1020B0003038580A00000000205232203D202025F0
:1020C0003038580A00000000205233203D202025DF
:1020D0003038580A0000000020523132203D2025BF
:1020E0003038580A00000000204C52203D202025A6
:1020F0003038580A00000000205043203D202025A1
:102100003038580A0000000020505352203D20254E
:102110003038580A000000004653522F4641523AC8
:102120000A0000002043465352203D20202530382D
:10213000580A00002048465352203D2020253038C0
:10214000580A00002044465352203D2020253038B4
:10215000580A00002041465352203D2020253038A7
:10216000580A0000204D4D464152203D2025303870
:10217000580A00002042464152203D202025303898
:10218000580A00004D6973630A000000204C522F6A
:102190004558435F52455455524E3D2025303858DE
:1021A0000A0000005B486172644661756C745D0AE8
:1021B000000000005B4275734661756C745D0A0037
:1021C0005B55736167654661756C745D0A0000005C
:1021D00000000000000000000102030406070809D7
:1021E0004173686D617779495449000049544969E0
:1021F000616E7300383000003136322E3235332EA6
:102200003135352E32323500687474703A2F2F66AE
:102210006F74612E6F7267667265652E636F6D2FC6
:10222000666C61672E7478740000000068747470C6
:102230003A2F2F666F74612E6F7267667265652E16
:10224000636F6D2F75706C6F6164732F736D727433
:102250002E686578000000004170702073697A650F
:102260002025640A0000000041707020456E7472E1
:10227000792025780A000000417070206669727329
:10228000742025780A00000025780A004154453062
:102290000D0A000041542B43574D4F44453D310D2D
:1022A0000A00000041542B43574A41505F435552A6
:1022B0003D220000220D0A0041542B434950535443
:1022C0004152543D22544350222C2200222C000023
:1022D00041542B43495053454E443D0025732564DA
:1022E0002573000047455420000000002573257326
:1022F00025730000232D302B2000686C4C00656690
:102300006745464700303132333435363738394146
:10231000424344454600303132333435363738395C
:072320006162636465660061
:102328007856341284000020000000000024F400D5
:1023380000E100E0000000000000000000000000D4
:102348000000000000000000000000000000000085
:102358000000000000000000000000000000000075
:102368000000000000000000000000000000000065
:102378000000000000000000000000000000000055
:102388000000000000000000000000000000000045
:0C23980000000000140000203254769871
:040000050800019559
:00000001FF
