:020000040800F2
:1000000000000120A9020008B1020008B5020008A2
:10001000290300082D0300087503000800000000F4
:10002000000000000000000000000000BD03000808
:10003000C103000800000000C5030008C903000850
:10004000D9030008D9030008D9030008D903000820
:10005000D9030008D9030008D9030008D903000810
:10006000D9030008D9030008D9030008310C00089F
:10007000410C0008510C0008610C0008710C0008CC
:10008000810C0008910C0008D90300080000000052
:10009000000000000000000000000000D90300087C
:1000A000D9030008D9030008D9030008D9030008C0
:1000B000D9030008D9030008D9030008D9030008B0
:1000C000D9030008D9030008D9030008D9030008A0
:1000D000D903000885110008D903000800000000BA
:1000E000D9030008D9030008D90300080000000064
:1000F000000000000000000000000000A10C00084B
:1001000000000000D9030008D9030008D903000843
:1001100000000000000000000000000000000000DF
:10012000B10C0008C10C0008D10C0008E10C00085B
:10013000F10C0008000000000000000000000000BA
:10014000000000000000000000000000D9030008CB
:10015000010D0008110D0008210D0008D903000849
:10016000D9030008D90300080000000000000000C7
:10017000000000000000000000000000000000007F
:1001800000000000D903000800000000000000008B
:10019000D903000800B583B000F0B4F9304B314A00
:1001A0001360314A1360314B314A03E01168196022
:1001B000043304322F498B42F8D32A4B1A682E4B52
:1001C0009A4204D1284B1A682C4B9A4200D0FEE781
:1001D000234B2B4A13602B4A13602B4B02E0002267
:1001E0001A600433294A9342F9D3254B1B6813B98B
:1001F000244B1B6803B1FEE700F090F9694601A8A3
:1002000000F02AF9224C234B1C1BA410002504E00B
:100210001F4B53F8253098470135AC42F8DC1E4C93
:100220001E4B1C1BA410002504E01B4B53F825306B
:1002300098470135AC42F8DC0099019800F0ECFFDA
:100240000546174C174B1C1BA41004E0013C144B33
:1002500053F824309847002CF8DC284600F0D8F8F2
:10026000BABADECA0000002078000020000000209A
:10027000641D00087C0000207856341232547698B1
:100280007C000020B84100207C000020BC41002000
:10029000040400080404000804040008040400081E
:1002A000040400080404000808B5FFF773FF00BF4A
:1002B00000BEFEE71EF0040F0CBFEFF30880EFF363
:1002C00009807146414A10472DE9F04182B0044649
:1002D0008846134B5E6B9F6B9D6A1B6B13F0020F7E
:1002E0000DD00F4BDB6A002B09DA4BF6AB6100F047
:1002F00091F920B14FF00042094BDA620CE0094855
:1003000000F0B2F8CDF800803B4632462946204640
:1003100000F008F900BEFEE702B0BDE8F08100BFC2
:1003200000ED00E0941C000800BEFEE71EF0040F84
:100330000CBFEFF30880EFF309807146244A1047A1
:100340002DE9F04182B004468846084B5E6B9F6BF6
:100350009D6A074800F088F8CDF800803B46324699
:100360002946204600F0DEF800BEFEE700ED00E082
:10037000A41C00081EF0040F0CBFEFF30880EFF37D
:1003800009807146134A10472DE9F04182B00446B6
:100390008846084B5E6B9F6B9D6A074800F064F8C7
:1003A000CDF800803B4632462946204600F0BAF898
:1003B00000BEFEE700ED00E0B01C000800BEFEE756
:1003C00000BEFEE700BEFEE770470000C90200085D
:0C03D000410300088903000800BEFEE79E
:1003DC00641D0008000000207C000020641D000843
:1003EC0000000010000000107C000020BC41002028
:0803FC000000001000000010D9
:10041000FEE700BF08B50D4B1B6813B90C4A0B4B28
:100420001A600A4B1A68C31C23F0030313440949DA
:100430008B4206D900F012FF0C2303604FF0FF300F
:1004400008BD02490B60104608BD00BF80000020B7
:10045000BC41002000FC002001230360014B0B6025
:10046000704700BF040000200FB400B583B004AB98
:1004700053F8042B01938021064800F021FF002847
:1004800003DD0146034800F039F803B05DF804EBE2
:1004900004B07047880000202DE9F04385B0044681
:1004A0000F46435613BB042528462146ABBE0446DF
:1004B0001FE03546102E28BF1025002306E014F952
:1004C000011B04AA1A4402F8101C0133AB42F6D3F4
:1004D00004AA1344002203F8102CE9464FF0040844
:1004E00040464946ABBE8046761B00E00E46002ED5
:1004F000DFD1384605B0BDE8F08300BF08B5FFF78F
:10050000CBFF08BD08B500F095F8024B024A9A608F
:1005100008BD00BF00ED00E00000000808B500F0D5
:10052000A9F808BDF8B504460D4617461E462648EC
:10053000FFF79AFF21682548FFF796FF6168244876
:10054000FFF792FFA1682348FFF78EFFE16822487A
:10055000FFF78AFF21692148FFF786FF616920487C
:10056000FFF782FFA1691F48FFF77EFFE1691E4880
:10057000FFF77AFF1D48FFF777FF29461C48FFF772
:1005800073FF1C4CE16A1C48FFF76EFF216B1B4890
:10059000FFF76AFFE16B1A48FFF766FF15F0800F5F
:1005A00003D039461748FFF75FFF15F4004F03D01B
:1005B00031461548FFF758FF1448FFF755FF0699D5
:1005C0001348FFF751FFF8BD781B0008881B00088F
:1005D000981B0008A81B0008B81B0008C81B0008CF
:1005E000D81B0008E81B0008F81B0008081C0008BE
:1005F000141C000800ED00E0241C0008341C000856
:10060000441C0008541C0008641C0008741C0008EA
:100610007C1C000883691A888A4207D10268033A61
:10062000012A05D8023383610120704700207047FA
:10063000002070470C4B1A6842F001021A6000213A
:1006400099601A6822F0847222F480321A60074A94
:100650005A601A6822F480221A60D9604FF0006252
:10066000034B9A60704700BF0038024010300024EE
:1006700000ED00E0224B9B6803F00C03042B07D035
:10068000082B09D0002B2DD11E4A1F4B1A602CE0DD
:100690001E4A1D4B1A6028E0194B5A685B6803F02C
:1006A0003F0312F4800F09D0184AB2FBF3F2144B47
:1006B0005B68C3F3881303FB02F208E0114AB2FB44
:1006C000F3F30F4A5168C1F3881101FB03F20C4B9D
:1006D0005B68C3F3014301335B00B2FBF3F30A4AE7
:1006E000136002E0074A084B1A60054B9B68C3F38E
:1006F0000313074AD15C044A1368CB401360704768
:10070000003802400024F4000C00002040787D01F5
:10071000C01C00080122014B1A707047080100201C
:10072000C378827843EA0223427843EA024302789C
:1007300043EA02630B60704708B5022000F010FB2B
:10074000032000F00DFB042000F00AFB052000F060
:1007500007FB08BD08B5044B19781031C9B203482E
:1007600000F0ACFC08BD00BF100100207441002067
:1007700008B57F21014800F0A1FC08BD74410020AC
:1007800070B50646002418E00D490B5D621C8A5CBA
:1007900043EA0223A21C8A5C43EA0243E21C8A5C0D
:1007A000084D43EA0262002329684FF4007000F00C
:1007B00003FB2B6804332B600434B442E4D370BDD4
:1007C000140100200C01002038B5012000F0C8FA07
:1007D0000B4D00242A6823460A494FF4007000F0AC
:1007E000EBFA6A68234608494FF4007000F0E4FA17
:1007F000AA68234605494FF4007000F0DDFA38BDC1
:10080000A8410020004000080440000808400008FB
:10081000F0B585B0214800F099FB012000F096FB6F
:1008200002268DF80C601E4C029409278DF80E707C
:1008300001258DF80D5002A800F010FB0722394663
:10084000204600F04FFB8DF8046000940A268DF8D6
:1008500006608DF80550684600F000FB072231461F
:10086000204600F03FFB0F4C4FF4165363610E4BD4
:1008700023600C23636000232361E360A36084F89A
:100880003050204600F0A6FB252000F04DFB074924
:10089000204600F059FC05B0F0BD00BF100000C0BC
:1008A00000000240744100200010014015070008BC
:1008B00070B5A74B1B78103B272B00F2A781DFE810
:1008C00013F02800A501A501A501A501A501A50119
:1008D000A501A501A501A501A501A501A501A501E8
:1008E000A501A501A501A501A501A501A501A501D8
:1008F000A501A501A501A501A501A501A501A501C8
:10090000A501A501A501A501A5017B00A501E700A1
:100910007301904B1B786BB98F4AD268B2F1FF3FDD
:1009200008D101228D498E4800F0E8FB0122894B55
:100930001A7070BDABB9884AD268B2F1553F10D178
:100940001022884B1A70FFF705FF0023864A1370A8
:10095000804A137034227E4B1A70012000F000FA96
:1009600070BD012B40F052817F4B1B78012B40F072
:100970004D8100237C4A1370764A1370774B1B78A5
:10098000102B07D1774A1370FFF7E4FE3422704B27
:100990001A7070BD552B04D1AA21714800F08EFB4E
:1009A00070BDFFF7E5FE1022694B1A7000236E4AF6
:1009B0001370684A137070BD664B1B7843B90122EF
:1009C0006649674800F09AFB0122624B1A7070BDBD
:1009D000012B25D1644A1278012A21D10022624BD1
:1009E0001A705E4B1B78342B11D15D4D3021284697
:1009F00000F064FB594C0C222146284600F07EFB97
:100A00002278584B1A700222524B1A7070BD002285
:100A1000504B1A70FFF7ACFE10224D4B1A7070BD90
:100A2000022B40F0F380504B1B78012B40F0EE80FE
:100A3000FFF790FE0023474A13704B4A13704B4C4C
:100A4000464E21463046FFF76BFE211D301DFFF755
:100A500067FE251F294606F10800FFF761FE616861
:100A6000434B196054F8042C424B1A604248FFF77C
:100A7000FBFC54F8041C4148FFF7F6FC6968404849
:100A8000FFF7F2FCFFF758FE3622314B1A7070BDAB
:100A9000304B1B78002B3FD1304C2146304800F0C2
:100AA00023FB2378362B2ED1314B1B68013BB3F54A
:100AB000806F11D238212A4800F000FB002406E0A4
:100AC00026492144264800F00FFB0134A4B2284BEC
:100AD0001B689C42F4D30FE03821214800F0EEFA65
:100AE000002406E01D4921441D4800F0FDFA0134B0
:100AF000A4B2B4F5806FF5D30222164B1A7000220F
:100B0000194B1A7070BDFFF733FE1022104B1A708C
:100B10000022104B1A7070BD022B77D10023124AAD
:100B200013700C4A1370124B1868431EB3F5806F94
:100B300028D2FFF725FE36220A4B1A70FFF70AFE6D
:100B40003722034B1A700022024B1A7070BD00BF8F
:100B5000100000201C41002000400008140100206B
:100B6000744100201001002008010020AC41002049
:100B7000184100200C010020D01C0008E01C0008D7
:100B8000F41C00084FF48060FFF7FAFD204B196851
:100B9000A1F5806119601F48FFF766FC36221E4BE5
:100BA0001A70FFF7D7FD70BD1C4B1B783BB91C4971
:100BB0001C4800F099FA0122184B1A7070BD012BE5
:100BC00024D10023184A1370144A1370144B1B7855
:100BD000372B11D1104A13703822144B1A70FFF7BB
:100BE000B9FDFFF7F1FD41F2883300E0013B002B36
:100BF000FCD100F0DBF970BDFFF7BAFD10220B4B02
:100C00001A700023084A1370044A137070BD00BFA5
:100C1000184100200C1D0008100100201C4100207C
:100C20001401002074410020080100201000002061
:100C300008B5024B1B6803B1984708BD204100204E
:100C400008B5024B5B6803B1984708BD20410020FE
:100C500008B5024B9B6803B1984708BD20410020AE
:100C600008B5024BDB6803B1984708BD204100205E
:100C700008B5024B1B6903B1984708BD204100200D
:100C800008B5024B5B6903B1984708BD20410020BD
:100C900008B5024B9B6903B1984708BD204100206D
:100CA00008B5024BDB6903B1984708BD204100201D
:100CB00008B5024B1B6A03B1984708BD20410020CC
:100CC00008B5024B5B6A03B1984708BD204100207C
:100CD00008B5024B9B6A03B1984708BD204100202C
:100CE00008B5024BDB6A03B1984708BD20410020DC
:100CF00008B5024B1B6B03B1984708BD204100208B
:100D000008B5024B5B6B03B1984708BD204100203A
:100D100008B5024B9B6B03B1984708BD20410020EA
:100D200008B5024BDB6B03B1984708BD204100209A
:100D3000044A136923F44073184340F00100106122
:100D4000704700BF003C0240034B044A5A6002F166
:100D500088325A60704700BF003C0240230167455B
:100D6000052821D8134BDB6813F4803F1ED1114AAC
:100D7000136923F0780343EAC00343F4803343F05C
:100D800002031361322301E0013BDBB2094AD2685E
:100D900012F4803F01D0002BF6D1064BDB6813F430
:100DA000803F05D100207047012070470120704727
:100DB00001207047003C0240F8B51F4601F177431F
:100DC00003F57C03234DAB423DD9234BDB6813F481
:100DD000803F3AD114463D460E46B0F5807F0FD095
:100DE00001D838B117E0B0F5007F0FD0B0F5407FE3
:100DF00014D010E0FFF79CFFE4B2347000200BE049
:100E0000FFF796FFA4B23480002005E0FFF790FFC3
:100E10003460002000E00120322307E0FFF788FF64
:100E2000C6E900450020F7E7013BDBB20A4AD26879
:100E300012F4803F01D0002BF6D1074BDB6813F48E
:100E4000803F04D1F8BD0120F8BD0120F8BD01208C
:100E5000F8BD00BFFFFFFB77003C024000283DD0FB
:100E600030B403460568296882795200032000FAED
:100E700002F421EA04041979014001FA02F2224342
:100E80002A601C6861689A790125954021EA050568
:100E90001979C1F3800101FA02F22A4361680A4319
:100EA00062601D68E9689A79520000FA02F421EA4A
:100EB00004041979C1F3C10101FA02F22243EA6084
:100EC0001D68AA689979490000FA01F422EA04042D
:100ED0005A7902FA01F32343AB6001E00020704726
:100EE00030BC70470F291BD810B407290BD8046AEF
:100EF00089000F238B4024EA030302FA01F119430E
:100F0000016203200EE0446A083989000F238B40F8
:100F100024EA030302FA01F119434162032001E0CC
:100F20000120704710BC7047F0280AD8420900F031
:100F30001F00012303FA00F0034B43F822000320B3
:100F400070470120704700BF00E100E020F04043FF
:100F500010F0404005D111490A6B13430B630C207C
:100F60007047B0F1804F05D10C494A6B13434B6376
:100F70000C207047B0F1004F05D108490A6C1343AB
:100F80000B640C207047B0F1404F05D103494A6C07
:100F900013434B640C20704709207047003802400F
:100FA000014B1860704700BF08ED00E0014A024B9A
:100FB0001A6070470400FA050CED00E00346026871
:100FC0001068002151601A68136823F04003136011
:100FD000704700BF002860D0034690F83020012AF7
:100FE0005DD110B4002280F830200468E26822F459
:100FF000405121F00C0140681A6910439A6802437D
:101000000A4342F40042E2601868026922F4405147
:10101000DA680A4302611868234A904203D0A2F5B5
:101020008062904216D15969C900204AB2FBF1F49E
:101030001F4AB2FBF1F2642101FB1421C9001D4AD1
:10104000A2FB01125209013202F0070242EA041225
:10105000826018E0184A904215D15969C900134AB4
:10106000B2FBF1F4124AB2FBF1F2642101FB14214C
:101070000901104AA2FB01125209013202F00702D3
:1010800042EA041282601968CA6842F40052CA60D7
:10109000012283F83020002003E002207047032063
:1010A000704710BC704700BF001401400024F400DA
:1010B00000105E5F1F85EB510044004003685960DB
:1010C00041F2883300E0013B0268116811F0400FE3
:1010D00001D1002BF7D1136813F0400F01D000208D
:1010E00070470120704700BF03681A6812F0200F94
:1010F000FAD05B680B700020704700BF0346D0B188
:1011000000205862D962DA611A680C498A4208D014
:101110000B4B9A4209D0A3F550439A4205D00120C7
:1011200004E008490B60002000E00020D36843F091
:101130002003D36070470220704700BF00100140B9
:10114000001401406041002091B110B403680B4AC3
:10115000934209D002F5806293420BD0A2F550422F
:10116000934207D0012006E0054B1960002002E001
:1011700002207047002010BC704700BF00100140E3
:101180006441002038B5214B1A6813681C68DD687B
:1011900014F0400F1CD015F0400F19D0116A90695F
:1011A00081420FD1012182F83010DA6822F040022A
:1011B000DA60174B1B6803B19847144B1868FFF7A8
:1011C000FDFE05E0906A415C5960136A01331362C9
:1011D00014F0200F18D015F0200F15D00B4B1B6802
:1011E000D96A5A6A1868406888545A6A01325A6241
:1011F000D9698A4208D11A68D36823F02003D360E2
:10120000044B1B6803B1984738BD00BF6041002004
:101210005C4100206441002010B50D48FFF724F91F
:101220000C4B5B68B3F1FF3F09D10B48FFF71CF98A
:10123000FFF78AFDFFF7ECFAFFF73AFBFCE7054BF7
:101240005C681868FFF7ACFE04B1A047002010BD31
:10125000201D0008004000082C1D0008014B1868E4
:10126000704700BF7400002030B5141E05469BB0C7
:10127000184604DA8B232B604FF0FF301DE04FF44B
:101280000273ADF80C3014BF04F1FF332346029310
:1012900005934FF6FF7300910491ADF80E300246AE
:1012A0001E9B6946284600F073F8431CBCBF8B2385
:1012B0002B6014B1009B00221A701BB030BD0000DF
:1012C00007B5009313460A46014603480068FFF736
:1012D000CBFF03B05DF804FB740000202DE9F0475C
:1012E0008E689E4282460C46914698463ED88A8930
:1012F00012F4906F3AD0256809696F1A6569022364
:1013000005EB450595FBF3F57B1C43449D4238BF37
:101310001D4653050FD5294600F08EFB064698B1B1
:101320003A46216900F014FBA38923F4906343F04B
:101330008003A38113E02A4600F0DCFB064670B967
:101340002169504600F02AFB0C23CAF80030A3891B
:1013500043F04003A3814FF0FF30BDE8F0872661E2
:1013600065613E44ED1B2660A5604646464528BFA4
:10137000464632464946206800F0F5FAA3689B1BB2
:10138000A36023681E4426600020BDE8F0870000AB
:101390002DE9F04F9DB0804603938B891C060D46C6
:1013A00016460DD50B695BB9402100F045FB28605E
:1013B000286118B90C23C8F80030CDE040236B61D8
:1013C0000023099320238DF82930DFF89CB13023C6
:1013D0008DF82A3037463C4614F8013B1BB9B7EB71
:1013E000060910D003E0252BF9D02746F3E74B463A
:1013F000324629464046FFF771FF013000F0A780D2
:10140000099B4B4409933B78002B00F0A0800023FC
:101410004FF0FF3204930793059206938DF85330F3
:101420001A930126052221784E4800F041FA671CE4
:10143000049B38B14B4A801A06FA00F01843049016
:101440003C46EFE7D90644BF20228DF853201A0707
:1014500044BF2B228DF8532022782A2A03D0079AE2
:1014600000210A200BE0039A111D12680391002A43
:1014700010DA524243F00200079204900BE0274634
:1014800001343B78303B092B03D800FB02320121A9
:10149000F5E701B107923B782E2B1ED17B782A2BE2
:1014A0000AD1039B1A1D1B680392002BB8BF4FF093
:1014B000FF330237059310E000230593781C19468B
:1014C0000A24074601303A78303A092A03D804FB47
:1014D00001210123F5E703B1059103223978224860
:1014E00000F0E6F940B14023CBEB000003FA00F036
:1014F000049B18430490013739781C488DF8281054
:1015000006227E1C00F0D4F988B1194B33B9039B35
:10151000073323F007030833039314E003AB00936E
:101520002A46144B04A94046AFF3008007E003AB02
:1015300000932A460F4B04A9404600F093F8B0F1FF
:10154000FF3F824603D0099B5344099342E7AB898E
:101550005B0601D4099801E04FF0FF301DB0BDE8F3
:10156000F08F00BF301D0008361D00083A1D00082E
:1015700000000000DD1200082DE9F04791461F46EB
:101580000A698B68DDF820809342B8BF1346C9F81A
:10159000003091F8432006460C4612B10133C9F8D9
:1015A00000302368990642BFD9F800300233C9F8E9
:1015B0000030256815F0060510D104F1190A07E07E
:1015C0000123524639463046C04701301AD0013512
:1015D000E368D9F800209B1A9D42F1DB94F8433070
:1015E0002268003318BF012392060FD5E1185A1C58
:1015F000302081F84300224494F8451082F84310CB
:10160000023303E04FF0FF30BDE8F08704F14302FE
:1016100039463046C0470130F4D02268D9F800502E
:10162000E36802F00602042A08BF5D1B2269A36872
:101630000CBF25EAE57500259342C4BF9B1AED183F
:101640004FF000091A344D4509D00123224639468E
:101650003046C0470130D5D009F10109F3E7002039
:10166000BDE8F0872DE9F04317460A7E85B06E2A63
:10167000984606460C460C9B01F1430E00F0AE80E6
:1016800011D8632A22D009D8002A00F0BB80582A3A
:1016900040F0CA8081F84520834955E0642A1ED075
:1016A000692A1CD0C0E0732A00F0B08009D86F2AE4
:1016B0002ED0702A40F0B8800A6842F020020A60FA
:1016C0003EE0752A24D0782A3AD0ADE01A6801F1BC
:1016D0004205111D1960136884F84230A8E02168A2
:1016E0001A6811F0800F02D0111D196008E011F086
:1016F000400F02F10401196002D0B2F9003000E09D
:101700001368002B3CDA2D225B4284F8432037E03B
:1017100021681A6811F0800F02D0111D196007E0CE
:1017200011F0400F02F10401196001D0138800E0AC
:101730001368227E5C496F2A14BF0A2208221BE02C
:1017400078225A4984F845202268186812F0800FE0
:1017500000F104051D6003D1550601D5038800E0A2
:101760000368D00744BF42F0200222601BB9226800
:1017700022F0200222601022002084F8430001E0C1
:1017800049490A226568A560002D08DB206820F021
:10179000040020602BB9002D7DD175460CE0002B94
:1017A00079D07546B3FBF2F002FB1033CB5C05F841
:1017B000013D03460028F5D1082A0BD12368DA073A
:1017C00008D5236962689A42DEBF302305F8013CE0
:1017D00005F1FF35C5EB0E0323612EE008681A689A
:1017E000496910F0800F03D0101D1860136808E0DD
:1017F00010F0400F02F104001860136801D0198046
:1018000000E0196000232361754616E01A68111D77
:101810001960156862680021284600F049F808B18F
:10182000401B6060636804E004F1420584F84220D4
:1018300001232361002384F84330CDF800803B4628
:1018400003AA21463046FFF797FE013002D14FF040
:10185000FF3026E023692A4639463046C04701302A
:10186000F5D023689B0710D5002504F1190907E07E
:1018700001234A4639463046C0470130E7D001359A
:10188000E368039A9B1A9D42F2DBE068039B98424F
:10189000B8BF184605E00B7884F8423004F14205E1
:1018A0008AE705B0BDE8F083411D0008521D00081D
:1018B00001F0FF01102A2BDB10F0070F08D010F801
:1018C000013B013A8B422DD010F0070F42B3F6D105
:1018D000F0B441EA012141EA014122F007047FF01E
:1018E00000070023F0E80256083C85EA010586EA75
:1018F000010685FA47F5A3FA87F586FA47F6A5FAB1
:1019000087F68EB9EED1F0BC01F0FF0102F00702BC
:1019100032B110F8013B013A83EA010313B1F8D167
:101920000020704701387047002D06BF3546033848
:10193000073815F0010F07D1013015F4807F02BF81
:10194000013015F4C03F0130F0BC0138704700BFD2
:1019500010B5431E0A44914204D011F8014B03F81C
:10196000014FF8E710BD884210B501EB020301D822
:10197000421E0BE09842FBD28118D21AD34204D007
:1019800013F8014D01F8014DF8E710BD994204D05C
:1019900011F8014B02F8014FF8E710BD38B50546C4
:1019A000002946D051F8043C0C1F002BB8BFE418A6
:1019B00000F0D6F81F4A1368114613B9636014602B
:1019C00032E0A3420ED92268A018834204BF1868EF
:1019D0005B68636004BF121822600C6024E0A242BE
:1019E00003D813465A68002AF9D118681918A14279
:1019F0000BD12168014458188242196014D1106833
:101A000052685A60014419600EE002D90C232B6021
:101A10000AE021686018824204BF10685268626060
:101A200004BF091821605C602846BDE8384000F01A
:101A300098B838BD6C41002070B5CD1C25F0030569
:101A400008350C2D38BF0C25002D064601DBA942B8
:101A500002D90C23336046E000F082F8234B1C6867
:101A60001A462146A1B10B685B1B0ED40B2B03D980
:101A70000B60CC18CD501EE08C420DBF63684B68E4
:101A80006360136018BF0C4615E00C464968E9E72F
:101A9000174C23681BB9304600F052F820602946E5
:101AA000304600F04DF8431C18D0C41C24F0030449
:101AB000A0420DD12560304600F053F804F10B0030
:101AC000231D20F00700C31A0ED05A42E25070BD09
:101AD000211A304600F034F80130EBD10C2333608A
:101AE000304600F03EF8002070BD00BF6C41002081
:101AF00068410020F8B5074615460E4621B9114643
:101B0000BDE8F840FFF798BF1AB9FFF747FF28462E
:101B1000F8BD00F027F885420ED929463846FFF770
:101B20008BFF044650B131462A46FFF711FF31467C
:101B30003846FFF733FF01E03046F8BD2046F8BDD8
:101B400038B5064C0023054608462360FEF762FCC4
:101B5000431C02D1236803B12B6038BD70410020C3
:101B60007047704751F8040C0028BEBF091851F89F
:101B7000043CC01804387047537461636B2066726C
:101B8000616D653A0A000000205230203D2020257A
:101B90003038580A00000000205231203D20202516
:101BA0003038580A00000000205232203D20202505
:101BB0003038580A00000000205233203D202025F4
:101BC0003038580A0000000020523132203D2025D4
:101BD0003038580A00000000204C52203D202025BB
:101BE0003038580A00000000205043203D202025B6
:101BF0003038580A0000000020505352203D202564
:101C00003038580A000000004653522F4641523ADD
:101C10000A0000002043465352203D202025303842
:101C2000580A00002048465352203D2020253038D5
:101C3000580A00002044465352203D2020253038C9
:101C4000580A00002041465352203D2020253038BC
:101C5000580A0000204D4D464152203D2025303885
:101C6000580A00002042464152203D2020253038AD
:101C7000580A00004D6973630A000000204C522F7F
:101C80004558435F52455455524E3D2025303858F3
:101C90000A0000005B486172644661756C745D0AFD
:101CA000000000005B4275734661756C745D0A004C
:101CB0005B55736167654661756C745D0A00000071
:101CC00000000000000000000102030406070809EC
:101CD0004170702053697A65203D2025640A000018
:101CE00041707020466972737420416464203D2005
:101CF00025780A0041707020456E74727920506F0B
:101D0000696E74203D2025780A00000052656D61DF
:101D1000696E696E672025642062797465730A00B4
:101D2000526573746172740A00000000424C0A002C
:101D3000232D302B2000686C4C00656667454647B4
:101D40000030313233343536373839414243444537
:101D500046003031323334353637383961626364A6
:031D6000656600B5
:101D64007856341284000020000000000024F4009F
:101D740010FFFFFF00000000000000000000000052
:101D8400000000000000000000000000000000004F
:101D9400000000000000000000000000000000003F
:101DA400000000000000000000000000000000002F
:101DB400000000000000000000000000000000001F
:101DC400000000000000000000000000000000000F
:0C1DD4000000000014000020325476983B
:040000050800019559
:00000001FF
