:020000040800F2
:1080000000000120C5820008CD820008D18200084E
:1080100045830008498300089183000800000000A0
:10802000000000000000000000000000D9830008EC
:10803000DD83000800000000E1830008E1890008FA
:10804000F5830008F5830008F5830008F583000830
:10805000F5830008F5830008F5830008F583000820
:10806000F5830008F5830008F5830008C590000833
:10807000D5900008E5900008F590000805910008EB
:108080001591000825910008F58300080000000004
:10809000000000000000000000000000F583000860
:1080A000F5830008F5830008F5830008F5830008D0
:1080B000F5830008F5830008F5830008F5830008C0
:1080C000F5830008F5830008F5830008F5830008B0
:1080D000F583000801890008F5830008000000000E
:1080E000F5830008F5830008F58300080000000010
:1080F00000000000000000000000000035910008B2
:1081000000000000F5830008F5830008F5830008EF
:10811000000000000000000000000000000000005F
:108120004591000855910008659100087591000877
:108130008591000800000000000000000000000021
:10814000000000000000000000000000F5830008AF
:1081500095910008A5910008B5910008F5830008E5
:10816000F5830008F583000800000000000000000F
:1081700000000000000000000000000000000000FF
:1081800000000000F583000800000000000000006F
:10819000F583000800B583B000F0BCF9384B394ACC
:1081A0001360394A136039490CE00A684B6801F1E1
:1081B0000C04886803E011681960043304329842A3
:1081C000F9D82146324B9942EFD32E4B1A68314BE6
:1081D0009A4204D12C4B1A682F4B9A4200D0FEE7EA
:1081E000274B2E4A13602E4A13602E4B0AE0194685
:1081F00051F8082B5B6802E00020106004329A42BC
:10820000FAD30B46284A9342F1D3244B1B6813B987
:10821000234B1B6803B1FEE700F088F9694601A80B
:1082200000F022F9214C224B1C1BA410002504E075
:108230001E4B53F8253098470135AC42F8DC1D4CF5
:108240001D4B1C1BA410002504E01A4B53F82530CD
:1082500098470135AC42F8DC0099019802F0D2F958
:108260000546164C164B1C1BA41004E0013C134B96
:1082700053F824309847002CF8DC284600F0D0F85A
:10828000BABADECA000000207C000020F883000893
:1082900010840008785634123254769880000020FA
:1082A0002802002010840008208400082084000890
:1082B000208400082084000820840008208400080E
:1082C0002084000808B5FFF765FF00BF00BEFEE789
:1082D0001EF0040F0CBFEFF30880EFF30980714626
:1082E000414A10472DE9F04182B004468846134BBD
:1082F0005E6B9F6B9D6A1B6B13F0020F0DD00F4BD3
:10830000DB6A002B09DA4BF6AB6100F08BF920B188
:108310004FF00042094BDA620CE0094800F0ACF87B
:10832000CDF800803B4632462946204600F002F94F
:1083300000BEFEE702B0BDE8F08100BF00ED00E046
:1083400054B0000800BEFEE71EF0040F0CBFEFF3B0
:108350000880EFF309807146244A10472DE9F04167
:1083600082B004468846084B5E6B9F6B9D6A074847
:1083700000F082F8CDF800803B4632462946204680
:1083800000F0D8F800BEFEE700ED00E064B00008A1
:108390001EF0040F0CBFEFF30880EFF30980714665
:1083A000134A10472DE9F04182B004468846084B35
:1083B0005E6B9F6B9D6A074800F05EF8CDF8008009
:1083C0003B4632462946204600F0B4F800BEFEE7A0
:1083D00000ED00E070B0000800BEFEE700BEFEE762
:1083E00000BEFEE770470000E58200085D830008DC
:0883F000A583000800BEFEE7B2
:1083F80018B20008000000208000002018B2000811
:108408000000001000000010800000202C02002056
:0884180000000010000000103C
:10842000FEE700BF08B50D4B1B6813B90C4A0B4B98
:108430001A600A4B1A68C31C23F00303134409494A
:108440008B4206D902F0E4F80C2303604FF0FF30B2
:1084500008BD02490B60104608BD00BF8400002023
:108460002C02002000FC002001230360014B0B6064
:10847000704700BF040000200FB400B583B004AB08
:1084800053F8042B01938021064802F0F3F80028EA
:1084900003DD0146034800F039F803B05DF804EB52
:1084A00004B070478C0000202DE9F04385B00446ED
:1084B0000F46435613BB042528462146ABBE04464F
:1084C0001FE03546102E28BF1025002306E014F9C2
:1084D000011B04AA1A4402F8101C0133AB42F6D364
:1084E00004AA1344002203F8102CE9464FF00408B4
:1084F00040464946ABBE8046761B00E00E46002E45
:10850000DFD1384605B0BDE8F08300BF08B5FFF7FE
:10851000CBFF08BD08B500F095F8024B024A9A60FF
:1085200008BD00BF00ED00E00080000808B500F0C5
:10853000A9F808BDF8B504460D4617461E4626485C
:10854000FFF79AFF21682548FFF796FF61682448E6
:10855000FFF792FFA1682348FFF78EFFE1682248EA
:10856000FFF78AFF21692148FFF786FF61692048EC
:10857000FFF782FFA1691F48FFF77EFFE1691E48F0
:10858000FFF77AFF1D48FFF777FF29461C48FFF7E2
:1085900073FF1C4CE16A1C48FFF76EFF216B1B4800
:1085A000FFF76AFFE16B1A48FFF766FF15F0800FCF
:1085B00003D039461748FFF75FFF15F4004F03D08B
:1085C00031461548FFF758FF1448FFF755FF069945
:1085D0001348FFF751FFF8BD38AF000848AF000857
:1085E00058AF000868AF000878AF000888AF0008EF
:1085F00098AF0008A8AF0008B8AF0008C8AF0008DF
:10860000D4AF000800ED00E0E4AF0008F4AF0008CC
:1086100004B0000814B0000824B0000834B000080A
:108620003CB0000883691A888A4207D10268033A7D
:10863000012A05D80233836101207047002070476A
:10864000002070470C4B1A6842F001021A600021AA
:1086500099601A6822F0847222F480321A60074A04
:108660005A601A6822F480221A60D9604FF00062C2
:10867000034B9A60704700BF00380240103000245E
:1086800000ED00E0224B9B6803F00C03042B07D0A5
:10869000082B09D0002B2DD11E4A1F4B1A602CE04D
:1086A0001E4A1D4B1A6028E0194B5A685B6803F09C
:1086B0003F0312F4800F09D0184AB2FBF3F2144BB7
:1086C0005B68C3F3881303FB02F208E0114AB2FBB4
:1086D000F3F30F4A5168C1F3881101FB03F20C4B0D
:1086E0005B68C3F3014301335B00B2FBF3F30A4A57
:1086F000136002E0074A084B1A60054B9B68C3F3FE
:108700000313074AD15C044A1368CB4013607047D7
:10871000003802400024F4000C00002040787D0165
:1087200080B0000810B500241CE004EB4402930064
:108730000E4AD158A9B10D4A13441B894BB9884739
:10874000620022449300094A134459681A890A4472
:108750001A81620022449300044A13441A89013AA0
:108760001A810134042CE0D910BD00BFA8010020FB
:1087700008B500F00FF9012000F012F9014800F0EF
:1087800029F908BD2587000808B500F01BF9FEE7A8
:1087900001EB41029300094AD3586BB970B44668A3
:1087A0004C006518AB0013445E6005891D810068AC
:1087B00021448B00D05070BC704700BFA80100203E
:1087C000034602681068002151601A68136823F09C
:1087D00040031360704700BF002860D0034690F844
:1087E0003020012A5DD110B4002280F830200468C6
:1087F000E26822F4405121F00C0140681A691043EC
:108800009A6802430A4342F40042E260186802692F
:1088100022F44051DA680A4302611868234A904200
:1088200003D0A2F58062904216D15969C900204A4E
:10883000B2FBF1F41F4AB2FBF1F2642101FB1421F7
:10884000C9001D4AA2FB01125209013202F00702BF
:1088500042EA0412826018E0184A904215D1596920
:10886000C900134AB2FBF1F4124AB2FBF1F26421DF
:1088700001FB14210901104AA2FB01125209013225
:1088800002F0070242EA041282601968CA6842F4E0
:108890000052CA60012283F83020002003E0022049
:1088A00070470320704710BC704700BF00140140A0
:1088B0000024F40000105E5F1F85EB51004400406F
:1088C0000368596041F2883300E0013B0268116897
:1088D00011F0400F01D1002BF7D1136813F0400FB6
:1088E00001D0002070470120704700BF03681A685C
:1088F00012F0200F01D05B680B700020704700BFA2
:1089000038B5214B1A6813681C68DD6814F0400FF5
:108910001CD015F0400F19D0116A906981420FD117
:10892000012182F83010DA6822F04002DA60174B39
:108930001B6803B19847144B1868FFF741FF05E027
:10894000906A415C5960136A0133136214F0200F7E
:1089500018D015F0200F15D00B4B1B68D96A5A6A36
:108960001868406888545A6A01325A62D9698A4242
:1089700008D11A68D36823F02003D360044B1B6826
:1089800003B1984738BD00BF100100200C01002042
:10899000140100200622014B1A60704710E000E02D
:1089A000054B03FB00F0054BA3FB00308009044B93
:1089B00018600020704700BF0024F400D34D6210FF
:1089C00014E000E0024A136843F0010313607047AB
:1089D00010E000E0014B1860704700BF1801002054
:1089E00008B5024B1B6803B1984708BD1801002069
:1089F000014A024B1A6070470400FA050CED00E0D2
:108A000049B301280FD010B1022818D025E0144A2C
:108A1000126812F0020F03D001220A700020704782
:108A20000020087070470E4A126812F4003F03D00D
:108A300001220A7000207047002008707047084A21
:108A4000126812F0007F03D001220A7000207047E4
:108A50000020087070470A2070470620704700BF4A
:108A60000038024010B582B000230193022821D8BB
:108A700004460DF10301FFF7C3FF9DF80330012BFE
:108A80001AD1104A136823F0030321461C431460D3
:108A9000C4F381040194142306E0013BDBB2094ACC
:108AA0001268C2F38102019213B1019A9142F4D18A
:108AB00023B104E0062002E0082000E0062002B016
:108AC00010BD00BF08380240202800F20A81DFE80C
:108AD00010F0210028002F0036003D0044004B001C
:108AE00052005900600067006E0075007C00830032
:108AF0008A00910098009F00A600AD00B400BB0062
:108B0000C200C900D000D700DE00E500EC00F30091
:108B1000FA000101744A136843F4800313600020D3
:108B20007047714A136843F40013136000207047C4
:108B30006D4A136843F480531360002070476A4AFB
:108B4000136843F00103136000207047664A1368FE
:108B500043F00203136000207047634A136843F038
:108B600004031360002070475F4A136843F0080352
:108B70001360002070475C4A136843F010031360D1
:108B800000207047584A136843F0800313600020A8
:108B90007047564A136843F0800313600020704703
:108BA000534A136843F08053136000207047504AC3
:108BB000136843F400031360002070474C4A1368A5
:108BC00043F48003136000207047494A136843F45C
:108BD0000013136000207047454A136843F40033C4
:108BE000136000207047424A136843F40043136047
:108BF000002070473E4A136843F48043136000200E
:108C000070473B4A136843F40063136000207047C9
:108C1000374A136843F00803136000207047344A52
:108C2000136843F00403136000207047304A136850
:108C300043F002031360002070472D4A136843F08D
:108C400001031360002070472A4A136843F480230D
:108C5000136000207047274A136843F40033136001
:108C600000207047234A136843F4803313600020C8
:108C70007047204A136843F4804313600020704714
:108C80001C4A136843F40053136000207047194ACC
:108C9000136843F48053136000207047154A13682B
:108CA00043F40063136000207047124A136843F4D2
:108CB00080731360002070470E4A136843F020034E
:108CC0001360002070470B4A136843F010031360D1
:108CD00000207047074A136843F001031360002027
:108CE00070470120704700BF3038024034380240DE
:108CF000403802404438024082B0002301930D4ABC
:108D0000136843F00103136003F00203019332235D
:108D100006E0013BDBB2074A126802F00202019250
:108D200013B1019A022AF4D00BB1002000E0082010
:108D300002B070470038024082B0002301930E4A0F
:108D4000136843F48033136003F400330193322338
:108D500006E0013BDBB2084A126802F400320192DD
:108D60001BB1019AB2F5003FF3D10BB1002000E036
:108D7000082002B0704700BF0038024082B00023D4
:108D800001930E4A136843F08073136003F000737D
:108D90000193322306E0013BDBB2084A126802F07D
:108DA000007201921BB1019AB2F1007FF3D10BB1B5
:108DB000002000E0082002B0704700BF00380240E9
:108DC0000B4B1B6813F00C030DD0082B04D1094B7F
:108DD0001B6813F4800F08D0074A136823F00103BF
:108DE000136000207047092070470920704700BFBA
:108DF0000838024004380240003802400B4B1B6820
:108E000003F00C03042B0DD0082B04D1084B1B6876
:108E100013F4800F08D1074A136823F480331360DA
:108E20000020704709207047092070470838024029
:108E30000438024000380240074B1B6803F00C0363
:108E4000082B06D0054A136823F0807313600020B6
:108E500070470920704700BF0838024000380240C0
:108E600008B501280CD010B1022812D01AE001294F
:108E700002D1FFF741FF08BDB1B9FFF7A1FF08BD5F
:108E8000012902D1FFF758FF08BD79B9FFF7B6FFF6
:108E900008BD012902D1FFF771FF08BD41B9FFF7F5
:108EA000CBFF08BD062008BD072008BD072008BD70
:108EB000072008BD70B400232FE042881A4112F049
:108EC000010F28D0456829685E000322B240D243D2
:108ED00011400478C4F3C104B440214329604568BB
:108EE0006C680121994024EA01040178C1F38001F2
:108EF00099400C436C604168CC681440057805F0DB
:108F00000305B5402C43CC604468A1681140427809
:108F1000B2400A43A2600133DBB20F2BCDD900204F
:108F200070BC70470E4B984207D003F5806398429F
:108F300003D003F5806398420CD1012A0CD812B1FA
:108F4000012A04D00AE00904816100207047816190
:108F500000207047022070470420704700207047AF
:108F6000000002400B4B984207D003F58063984203
:108F700003D003F58063984209D10369194203D0F5
:108F800001231370002070470020107070470220EA
:108F9000704700BF00000240044A136923F4407385
:108FA000184340F001001061704700BF003C0240D0
:108FB000034B044A5A6002F188325A60704700BF7E
:108FC000003C024023016745052821D8134BDB688C
:108FD00013F4803F1ED1114A136923F0780343EA4A
:108FE000C00343F4803343F002031361322301E0F2
:108FF000013BDBB2094AD26812F4803F01D0002B5A
:10900000F6D1064BDB6813F4803F05D10020704792
:10901000012070470120704701207047003C02404A
:10902000F8B51F4601F1774303F57C03234DAB42AE
:109030003DD9234BDB6813F4803F3AD114463D46BB
:109040000E46B0F5807F0FD001D838B117E0B0F5EB
:10905000007F0FD0B0F5407F14D010E0FFF79CFFE9
:10906000E4B2347000200BE0FFF796FFA4B2348026
:10907000002005E0FFF790FF3460002000E00120B1
:10908000322307E0FFF788FFC6E900450020F7E735
:10909000013BDBB20A4AD26812F4803F01D0002BB8
:1090A000F6D1074BDB6813F4803F04D1F8BD0120F3
:1090B000F8BD0120F8BD0120F8BD00BFFFFFFB7720
:1090C000003C024008B5024B1B6803B1984708BD3D
:1090D0001C01002008B5024B5B6803B1984708BD2E
:1090E0001C01002008B5024B9B6803B1984708BDDE
:1090F0001C01002008B5024BDB6803B1984708BD8E
:109100001C01002008B5024B1B6903B1984708BD3C
:109110001C01002008B5024B5B6903B1984708BDEC
:109120001C01002008B5024B9B6903B1984708BD9C
:109130001C01002008B5024BDB6903B1984708BD4C
:109140001C01002008B5024B1B6A03B1984708BDFB
:109150001C01002008B5024B5B6A03B1984708BDAB
:109160001C01002008B5024B9B6A03B1984708BD5B
:109170001C01002008B5024BDB6A03B1984708BD0B
:109180001C01002008B5024B1B6B03B1984708BDBA
:109190001C01002008B5024B5B6B03B1984708BD6A
:1091A0001C01002008B5024B9B6B03B1984708BD1A
:1091B0001C01002008B5024BDB6B03B1984708BDCA
:1091C0001C01002010B586B001240494124B0393B7
:1091D0001423ADF81430002103A8FFF7D9FA0F4B80
:1091E0001C70072413E008238DF8043002238DF847
:1091F0000530013C0A4B03EBC4029288ADF806200F
:1092000053F83430029301A8FFF754FEE4B2002C67
:10921000E9D106B010BD00BFBD9600086501002071
:1092200090B00008064B1A78931EDBB2012B06D9CA
:10923000044B1A700222024B1A70034B18707047CD
:10924000650100205C01002064010020064B1A78B3
:10925000931EDBB2012B06D9044B1A700322024B7A
:109260001A70034B18707047650100205C010020E4
:109270005B01002070B40F4C2478C4B9B8B14C1E07
:10928000E4B20F2C13D804250A4C25700C4606E0D6
:10929000651E044414F8016C074C6655ECB2002CB2
:1092A000F6D106480270064A1370064B197070BC5E
:1092B000704700BF65010020E40100206301002029
:1092C0005E0100205A010020074B1B780BB1042BD4
:1092D00008D1064A1070064A1170064A1370062219
:1092E000014B1A70704700BF650100206301002028
:1092F0005E0100205C01002008B5264B1B78082B7E
:1093000046D8DFE803F0050C131A21282F363D005C
:109310000122204B1A702820FFF784FF08BD02228B
:109320001C4B1A702820FFF77DFF08BD0322194B44
:109330001A702820FFF776FF08BD0422154B1A701B
:109340000220FFF76FFF08BD0522124B1A700120A3
:10935000FFF768FF08BD06220E4B1A700C20FFF7BE
:1093600061FF08BD07220B4B1A700620FFF75AFF5A
:1093700008BD0822074B1A701420FFF753FF08BDE1
:109380000023044A1370044A13708020FFF74AFF39
:1093900008BD00BF620100206501002008B50F4B29
:1093A0001A780F4B1A700F4B1B78022B03D98020B1
:1093B000FFF738FF08BD0C4A1078102803D9802029
:1093C000FFF730FF08BD23B940F08000FFF72AFF08
:1093D00008BD40F0C000FFF725FF08BD5C0100207C
:1093E00065010020630100205E01002008B5144BD8
:1093F0001B7813B1012B0DD008BD0022114B1A7040
:1094000001220F4B1A70104B1978104B1878FFF788
:109410005BFF08BD0B4B1A780D4B1B78013B9A4242
:1094200004D1002306490B700A490B700A4B985C63
:10943000FFF70CFF034A13780133137008BD00BF18
:109440005D010020610100205E0100206301002019
:109450005A01002065010020E401002008B5114BED
:109460001B7813B1012B0BD008BD00220E4B1A70D4
:1094700001220C4B1A700D4B1878FFF7D3FE08BD74
:10948000094B1B78072B04D1002206490A700849B2
:109490000A70084AD05CFFF7D9FE034A13780133FB
:1094A000137008BD5F0100206001002064010020EE
:1094B00065010020E4010020F8B53C4B1D783C4BD1
:1094C0001B78012B35D013B1022B5BD0F8BD394C82
:1094D0000022A189A068FFF725FD2668A788002241
:1094E00039463046FFF71EFD0022A18A2069FFF7AA
:1094F00019FDC5F30012A18BA069FFF713FDC5F399
:109500004012A18C206AFFF70DFDC5F38012A18DDA
:10951000A06AFFF707FDEA09A18E206BFFF702FDA5
:10952000012239463046FFF7FDFC0122204B1A701C
:10953000F8BD204C2668A788002239463046FFF740
:10954000F1FC05F00102A18BA069FFF7EBFCC5F36C
:109550004002A18C206AFFF7E5FCC5F38002A18DD3
:10956000A06AFFF7DFFCC5F3C002A18E206BFFF7F6
:10957000D9FC012239463046FFF7D4FC02220C4BBD
:109580001A70F8BD0B4B002299881868FFF7CAFCC7
:109590000022074B1A70084B1B78062B02D1074B91
:1095A0001A70F8BD054A1370F8BD00BF64010020B1
:1095B0005901002090B000085C01002065010020E6
:1095C000F8B5394B1D78394B1B78012B35D013B1C9
:1095D000022B5BD0F8BD364C0022A189A068FFF7B2
:1095E000A1FC2668A788002239463046FFF79AFC7E
:1095F0000122A18A2069FFF795FCC5F30012A18B17
:10960000A069FFF78FFCC5F34012A18C206AFFF719
:1096100089FCC5F38012A18DA06AFFF783FCEA09DB
:10962000A18E206BFFF77EFC012239463046FFF702
:1096300079FC01221D4B1A70F8BD1D4C2668A788C5
:10964000002239463046FFF76DFC05F00102A18B80
:10965000A069FFF767FCC5F34002A18C206AFFF701
:1096600061FCC5F38002A18DA06AFFF75BFCC5F326
:10967000C002A18E206BFFF755FC0122394630460F
:10968000FFF750FC0222094B1A70F8BD084B00226C
:1096900099881868FFF746FC0022044B1A70054BA6
:1096A0001A78054B1A70F8BD5B01002058010020A4
:1096B00090B000085C0100206501002008B50E4B49
:1096C0001B78013B052B15D8DFE803F00306090CD6
:1096D0000F12FFF711FE08BDFFF7EEFE08BDFFF702
:1096E0006FFF08BDFFF782FE08BDFFF7B7FE08BD9C
:1096F000FFF754FE08BD00BF650100202DE9F043CF
:1097000087B000243CE0DFF89C9066003219D3005B
:1097100009EB030559F8033002932B8AADF80630A4
:109720004FF008088DF8048002278DF8057001A815
:10973000FFF7C0FB6B6802936B8AADF806308DF8BB
:1097400004808DF8057001A8FFF7B4FBAB680293A5
:10975000AB8AADF806308DF804808DF8057001A84D
:10976000FFF7A8FBEB680293EB8AADF806308DF8A3
:1097700004808DF8057001A8FFF79CFB0134E4B26A
:10978000002CC0D00A230493054B03936423ADF847
:109790001430032103A8FEF7FBFF07B0BDE8F083F8
:1097A000A9970008C8B00008A64B1B7813F0FF0F5C
:1097B00000F0A68170B5A44B1B78DBB2012B40F002
:1097C000C080A24B1B78072B00F28381DFE803F0F7
:1097D00004273C51657A8FA401259C4B1D709C4E3B
:1097E000337832789B4C02EB4202D100214403EBE8
:1097F0004303D8002A46098A2058FFF793FB3378A1
:10980000327802EB4202D100214403EB4303DA0039
:1098100014442A46C98AE068FFF784FB59E1022212
:109820008A4B1A708A4A137812788A4802EB4202ED
:10983000D100014403EB4303DA0083180022C98AF4
:10984000D868FFF76FFB44E10322804B1A70804A0F
:10985000137812787F4802EB4202D100014403EBF7
:109860004303DA0083180122498A5868FFF75AFB3C
:109870002FE10422754B1A70754A13781278754CD3
:1098800002EB4202D100214403EB4303D800002243
:10989000098A2058FFF746FB1BE105226B4B1A7023
:1098A0006B4A137812786B4802EB4202D1000144F4
:1098B00003EB4303DA0083180122898A9868FFF7D3
:1098C00031FB06E10622614B1A70614A1378127867
:1098D000604802EB4202D100014403EB4303DA008B
:1098E00083180022498A5868FFF71CFBF1E0072221
:1098F000564B1A70564A13781278564802EB4202B9
:10990000D100014403EB4303DA0083180122C98A22
:10991000D868FFF707FBDCE008224C4B1A704C4A72
:10992000137812784B4802EB4202D100014403EB5A
:109930004303DA0083180022898A9868FFF7F2FA55
:10994000C7E0424B1B78072B00F2C380DFE803F02F
:1099500004273B50658499AD01253C4B1D703C4E5E
:10996000337832783B4C02EB4202D100214403EBC6
:109970004303D8002A46098A2058FFF7D3FA3378E0
:10998000327802EB4202D100214403EB4303DA00B8
:1099900014442A46C98AE068FFF7C4FA99E0022213
:1099A0002A4B1A702A4A137812782A4C02EB420288
:1099B000D100214403EB4303D8000022098A205838
:1099C000FFF7B0FA85E00322204B1A70204A137883
:1099D0001278204802EB4202D100014403EB43031A
:1099E000DA0083180122898A9868FFF79BFA70E0F1
:1099F0000422164B1A70164A13781278154802EB97
:109A00004202D100014403EB4303DA008318002231
:109A1000C98AD868FFF786FA5BE005220B4B1A70FB
:109A20000B4A137812780B4802EB4202D100014432
:109A300003EB4303DA0083180122498A5868FFF7D1
:109A400071FA46E0690100206A0100206E010020E1
:109A500068010020C8B0000806222A4B1A702A4A62
:109A600013781278294802EB4202D100014403EB3B
:109A70004303DA0083180022898A9868FFF752FAB4
:109A800027E007221F4B1A701F4A137812781F4CC9
:109A900002EB4202D100214403EB4303D800012230
:109AA000098A2058FFF73EFA13E00822154B1A7076
:109AB000154A13781278154802EB4202D10001448E
:109AC00003EB4303DA0083180022498A5868FFF742
:109AD00029FA0C4B1B78082B11D10022094B1A7064
:109AE0000B4A138801339BB213800A4A128892B240
:109AF000934204D10023064A1380074A137070BDB5
:109B0000704700BF6E01002068010020C8B0000847
:109B10006C010020660100206901002030B583B08F
:109B2000022400251FE0631E114A02EBC302927952
:109B30001AB908228DF8002002E00C228DF80020CE
:109B400002228DF801200A4A02EBC3010979ADF81F
:109B5000021052F8333001936846FFF7ABF900B1B9
:109B60000125013CA4B2002CDDD1284603B030BD54
:109B7000E0B0000810B5064B03EBC00462794A4020
:109B8000217953F83000FFF7CDF900B1012010BD65
:109B9000E0B0000830B587B00024254615E0082362
:109BA0008DF8103002238DF811301D4B53F83420FE
:109BB000059203EBC4039B88ADF8123004A8FFF7AD
:109BC00079F900B101250134E4B2032CE7D904246A
:109BD00015E001238DF8103002238DF81130104B61
:109BE00053F83420059203EBC4039B88ADF8123080
:109BF00004A8FFF75FF900B101250134E4B2062C97
:109C0000E7D905230293074B01933223ADF80C30BB
:109C1000012101A8FEF7BCFD284607B030BD00BFFA
:109C2000F0B00008519C0008074B1B78012B07D1AE
:109C300040B1064B1B7803700020034B187070472F
:109C400001207047022070477C0100207D01002028
:109C50002DE9F04383B0002753E03D462B4B53F8EA
:109C6000378003EBC703B3F804900022494640460F
:109C7000FFF758F900243BE02646231D234800EB5C
:109C8000C3010DF10702898850F83300FFF76AF924
:109C900005EB45031E4A13441B5D9DF807209342C4
:109CA00007D105EB45031B490B44195D01311955DB
:109CB00005E005EB450317490B440021195505EB59
:109CC000450314490B449B5D052B0AD14AB9012178
:109CD000114B197005EB450310490B44995D104B6E
:109CE000197005EB45030A490B449A550134E4B257
:109CF000022CC1D9012249464046FFF713F901372A
:109D0000FFB2032FA9D903B0BDE8F083F0B000087B
:109D100070010020800100207C01002028B1000893
:109D20007D01002010B582B0002429E019496300AC
:109D300023449A008B188A5801921B89ADF802308F
:109D40000C238DF8003002238DF801306846FFF7B0
:109D5000B1F8C8B90F4863001A19910001444A6864
:109D600001924B89ADF8023008238DF800300223B0
:109D70008DF801306846FFF79DF838B90134E4B238
:109D8000002CD3D0002002E0012000E0012002B02E
:109D900010BD00BF34B1000828BBF8B581B9144E1E
:109DA00045002A189300F71801223989F058FFF767
:109DB000B9F8002279897868FFF7B4F80020F8BD77
:109DC000012912D10A4D47003A189300EE180022DB
:109DD0003189E858FFF7A6F8012271897068FFF70A
:109DE000A1F80020F8BD012070470120F8BD00BF98
:109DF00034B1000888B9F8B5094D47003A18930006
:109E0000EE1800223189E858FFF78CF8002271899A
:109E10007068FFF787F80020F8BD0120704700BF89
:109E200034B1000810B582B0002414E00D4B53F893
:109E30003420019203EBC4039B88ADF80230082361
:109E40008DF8003002238DF801306846FFF732F8B4
:109E500028B90134E4B2002CE8D0002000E0012051
:109E600002B010BD40B1000860B908B5034607480C
:109E700000EBC3010122898850F83300FFF752F844
:109E800010B908BD01207047012008BD40B100088D
:109E900070B588B001210020FEF7E2FF0020FEF738
:109EA000E1FD0320FEF710FE0420FEF70DFE052065
:109EB000FEF70AFE1F20FEF707FEFEF759FCFFF72C
:109EC00081F9FFF767FEFFF7ADFFFFF72BFFFFF705
:109ED00025FEFFF713FCFFF76BF810268DF80C60DA
:109EE000234D04954FF40073ADF80E3003248DF824
:109EF0000D4003A8FEF7DEFF8DF8046002954FF4D5
:109F00008063ADF806308DF8054001A8FEF7D2FF5A
:109F10004FF4EE62174B1A6017484FF41653436123
:109F2000164B03600C23436000230361C36083600E
:109F3000012380F83030FEF74FFCC8240694104B04
:109F400005934FF4FA73ADF81C30042105A8FEF711
:109F50001FFCFA2306930B4B0593ADF81C4002211E
:109F600005A8FEF715FCFEF70FFC08B070BD00BF9A
:109F70000000024024000240F401002000100140D3
:109F8000B9A5000881A5000800B583B0234B1B7854
:109F90004BB90122214B1A7000231A460E2120488A
:109FA000FFF768F937E0012B07D102221B4B1A702B
:109FB00000210120FFF788F92DE00DF10700FFF7E0
:109FC00033FE40BB174B1B78174AD35C9DF8070044
:109FD000834202D00122154B1A70FFF737F9114A5C
:109FE00013780133DBB21370042B14D10F4B1B78A1
:109FF000012B08D102220E4B1A700023074A13705E
:10A00000084A137007E00122094B1A700023034A23
:10A010001370044A137003B05DF804FB950100202F
:10A020004CB100088D01002048B1000896010020C5
:10A030008C01002000B583B0524B1B78042B00F23A
:10A040009E80DFE803F003133B454F000120FFF73C
:10A05000E9F801234C4A137080214C4A11804C4A84
:10A0600013704C4A1370474A137088E04A4B1B78B0
:10A0700053B9022300220B214848FFF7FBF8464A58
:10A080001378013313707AE01E2B13D102223D4B5B
:10A090001A700120FFF7C6F800233B4A1370802195
:10A0A0003A4A118001223A490A703A490A703A4AFA
:10A0B000137064E00133384A137060E000231A46DD
:10A0C0000F213748FFF7D6F803222E4B1A7056E0BF
:10A0D000002301220C213348FFF7CCF80422294B3E
:10A0E0001A704CE00DF10700FFF79EFD002834D1F7
:10A0F0009DF80730312B0DD103222B4B1A70022211
:10A10000204B1A704FF49672284B1A800120FFF7EB
:10A1100089F834E0322B0DD10422234B1A7002222D
:10A12000184B1A704FF49672204B1A800120FFF7DB
:10A1300079F824E01D4A1388013B9BB21380F3B9E0
:10A140004FF49672194B1A8000230E4A1370164A68
:10A1500013700120FFF766F811E0144A1388013BE1
:10A160009BB213805BB94FF49672104B1A80002398
:10A17000044A13700C4A13700120FFF753F803B020
:10A180005DF804FB940100206A01002066010020B4
:10A1900068010020690100208F0100205CB10008E7
:10A1A00068B1000878B100088C010020120000207E
:10A1B00008B51E4B1B78012B13D013B1022B21D0F5
:10A1C00008BD0120FFF72EF80020FFF74DFE01210A
:10A1D0000020FFF7CFFC0123154A1370134A1370B8
:10A1E00008BD00231A460F211248FFF743F800214B
:10A1F0000846FFF7BFFC00220D4B1A7002220B4BE2
:10A200001A7008BD0A4B1B783BB901210020FFF7EB
:10A21000B1FC0122064B1A7008BD00210846FFF769
:10A22000A9FC0022024B1A7008BD00BF9701002054
:10A230008E01002088B1000810B582B0834B1B78D6
:10A24000052B00F20181DFE803F0030D17363EC253
:10A2500000231A460E217E48FFF70CF801227B4BA3
:10A260001A70F1E0002301220E217A48FFF702F86C
:10A270000222764B1A70E7E0774B1B78122B03D83B
:10A280000133754A1370DFE0132B07D10120FEF76D
:10A29000C9FF714A137801331370D5E003226B4B69
:10A2A0001A7000231A460F216C48FEF7E3FF0022C4
:10A2B000694B1A70C8E000210120FFF705F804225D
:10A2C000624B1A70C0E00DF10700FFF7ADFC0028EB
:10A2D00067D19DF80700A0F13003DBB2092B3AD813
:10A2E0005F4A13780133DBB213704FF496715D4A05
:10A2F0001180032B06D90022594B1A700522534BAB
:10A300001A70A1E0584C227802EB820253000344F9
:10A31000303B2370FEF79AFF23780A2B40F294809B
:10A320000B3BDBB2592B09D80522484B1A70012090
:10A33000FEF778FF00224A4B1A7085E064224A4BF0
:10A340001A700522414B1A700120FEF76BFF0022A4
:10A35000434B1A7078E02A280DD105223B4B1A7026
:10A360004FF496723F4B1A800120FEF75BFF0022EC
:10A370003B4B1A7068E03B4A1388013B9BB2138049
:10A38000002B61D14FF49672364B1A8000242F4B6C
:10A390001C70364B1C700120FEF744FF304B1C70C4
:10A3A00052E0304A1388013B9BB21380002B4BD103
:10A3B0004FF496722B4B1A800024244B1C702B4BAD
:10A3C0001C700120FEF72EFF254B1C703CE0264B35
:10A3D0001A78274B1B789A4217D20120254908701A
:10A3E0009B1A5B02244981FB0341DB17C3EB61131A
:10A3F0009BB222490B80002321490B702149087030
:10A400001B490A70184A137018E09A4216D90021A5
:10A4100018480170D31A5B02174880FB0340DB1712
:10A42000C3EB60139BB215480380154B19700120D4
:10A43000144B18700E4B1A700B4B19700022034B03
:10A440001A700122094B1A7002B010BD9901002048
:10A4500098B10008A8B1000892010020B8B1000826
:10A460009301002014000020980100208C0100209E
:10A47000900100206A0100201F85EB516601002039
:10A48000680100206901002000B583B0374B1B78BC
:10A49000012B0DD013B1022B14D064E000231A4617
:10A4A0000B213348FEF7E6FE0122304B1A705AE0CA
:10A4B000002301220C212F48FEF7DCFE02222B4B49
:10A4C0001A7050E00DF10700FFF7AEFB002838D1FD
:10A4D0009DF80730312B0FD10121FFF75DFC0120E2
:10A4E000254B18700022214B1A704FF49672234BA3
:10A4F0001A80FEF797FE36E0322B0FD10020FFF7CF
:10A5000079FC01201C4B18700022184B1A704FF474
:10A5100096721A4B1A80FEF785FE24E0174A1388BC
:10A52000013B9BB21380F3B94FF49672134B1A8020
:10A5300000230E4A1370104A13700120FEF772FEBA
:10A5400011E00E4A1388013B9BB213805BB94FF4B4
:10A5500096720A4B1A800023044A1370064A13703D
:10A560000120FEF75FFE03B05DF804FB91010020BF
:10A57000C8B10008D4B100088C01002010000020F0
:10A5800008B50C4B1B78042B12D8DFE803F0030648
:10A59000090C0F00FFF7F8FC08BDFFF74BFD08BDE5
:10A5A000FFF706FE08BDFFF747FE08BDFFF76CFF8B
:10A5B00008BD00BF8C01002000B583B002A90023B4
:10A5C00001F8013D0D48FEF791F99DF80730552B34
:10A5D00010D10120FEF7F8FC4FF055320023084956
:10A5E0004FF40070FEF71CFDAA210448FEF768F93D
:10A5F000FEF7FEF903B05DF804FB00BFF401002094
:10A600000C40000808B5FFF743FC002008BD00BF60
:10A61000014B1868704700BF7800002030B5141E49
:10A6200005469BB0184604DA8B232B604FF0FF30B1
:10A630001DE04FF40273ADF80C3014BF04F1FF338A
:10A640002346029305934FF6FF7300910491ADF8F2
:10A650000E3002461E9B6946284600F073F8431CE4
:10A66000BCBF8B232B6014B1009B00221A701BB05F
:10A6700030BD000007B5009313460A460146034863
:10A680000068FFF7CBFF03B05DF804FB7800002003
:10A690002DE9F0478E689E4282460C4691469846C8
:10A6A0003ED88A8912F4906F3AD0256809696F1AEA
:10A6B0006569022305EB450595FBF3F57B1C4344D7
:10A6C0009D4238BF1D4653050FD5294600F094FB27
:10A6D000064698B13A46216900F01AFBA38923F493
:10A6E000906343F08003A38113E02A4600F0E2FB6D
:10A6F000064670B92169504600F030FB0C23CAF8B9
:10A700000030A38943F04003A3814FF0FF30BDE840
:10A71000F087266165613E44ED1B2660A5604646D4
:10A72000464528BF464632464946206800F0FBFAB7
:10A73000A3689B1BA36023681E4426600020BDE81D
:10A74000F08700002DE9F04F9DB0804603938B8980
:10A750001C060D4616460DD50B695BB9402100F06D
:10A760004BFB2860286118B90C23C8F80030CDE0F5
:10A7700040236B610023099320238DF82930DFF8F3
:10A780009CB130238DF82A3037463C4614F8013B03
:10A790001BB9B7EB060910D003E0252BF9D02746EB
:10A7A000F3E74B46324629464046FFF771FF01303A
:10A7B00000F0A780099B4B4409933B78002B00F0E5
:10A7C000A08000234FF0FF32049307930592069375
:10A7D0008DF853301A930126052221784E4800F057
:10A7E00047FA671C049B38B14B4A801A06FA00F0FE
:10A7F000184304903C46EFE7D90644BF20228DF869
:10A8000053201A0744BF2B228DF8532022782A2A7E
:10A8100003D0079A00210A200BE0039A111D126849
:10A820000391002A10DA524243F00200079204908A
:10A830000BE0274601343B78303B092B03D800FB63
:10A8400002320121F5E701B107923B782E2B1ED190
:10A850007B782A2B0AD1039B1A1D1B680392002BBD
:10A86000B8BF4FF0FF330237059310E00023059384
:10A87000781C19460A24074601303A78303A092AEA
:10A8800003D804FB01210123F5E703B1059103225D
:10A890003978224800F0ECF940B14023CBEB0000BE
:10A8A00003FA00F0049B18430490013739781C48E0
:10A8B0008DF8281006227E1C00F0DAF988B1194BB9
:10A8C00033B9039B073323F007030833039314E0E2
:10A8D00003AB00932A46144B04A94046AFF3008013
:10A8E00007E003AB00932A460F4B04A9404600F053
:10A8F00093F8B0F1FF3F824603D0099B534409937C
:10A9000042E7AB895B0601D4099801E04FF0FF30C4
:10A910001DB0BDE8F08F00BFE4B10008EAB1000847
:10A92000EEB100080000000091A600082DE9F047F4
:10A9300091461F460A698B68DDF820809342B8BFB4
:10A940001346C9F8003091F8432006460C4612B170
:10A950000133C9F800302368990642BFD9F80030A6
:10A960000233C9F80030256815F0060510D104F14E
:10A97000190A07E00123524639463046C0470130E4
:10A980001AD00135E368D9F800209B1A9D42F1DB0B
:10A9900094F843302268003318BF012392060FD584
:10A9A000E1185A1C302081F84300224494F84510E5
:10A9B00082F84310023303E04FF0FF30BDE8F08728
:10A9C00004F1430239463046C0470130F4D02268D2
:10A9D000D9F80050E36802F00602042A08BF5D1BA4
:10A9E0002269A3680CBF25EAE57500259342C4BF20
:10A9F0009B1AED184FF000091A344D4509D0012378
:10AA0000224639463046C0470130D5D009F1010908
:10AA1000F3E70020BDE8F0872DE9F04317460A7EF2
:10AA200085B06E2A984606460C460C9B01F1430EF3
:10AA300000F0AE8011D8632A22D009D8002A00F095
:10AA4000BB80582A40F0CA8081F84520834955E0F0
:10AA5000642A1ED0692A1CD0C0E0732A00F0B0809E
:10AA600009D86F2A2ED0702A40F0B8800A6842F0C8
:10AA700020020A603EE0752A24D0782A3AD0ADE060
:10AA80001A6801F14205111D1960136884F84230FB
:10AA9000A8E021681A6811F0800F02D0111D19601A
:10AAA00008E011F0400F02F10401196002D0B2F980
:10AAB000003000E01368002B3CDA2D225B4284F862
:10AAC000432037E021681A6811F0800F02D0111D71
:10AAD000196007E011F0400F02F10401196001D084
:10AAE000138800E01368227E5C496F2A14BF0A2293
:10AAF00008221BE078225A4984F845202268186809
:10AB000012F0800F00F104051D6003D1550601D538
:10AB1000038800E00368D00744BF42F020022260AF
:10AB20001BB9226822F0200222601022002084F843
:10AB3000430001E049490A226568A560002D08DB51
:10AB4000206820F0040020602BB9002D7DD17546CF
:10AB50000CE0002B79D07546B3FBF2F002FB10330A
:10AB6000CB5C05F8013D03460028F5D1082A0BD13E
:10AB70002368DA0708D5236962689A42DEBF30236A
:10AB800005F8013C05F1FF35C5EB0E0323612EE00E
:10AB900008681A68496910F0800F03D0101D18600A
:10ABA000136808E010F0400F02F104001860136809
:10ABB00001D0198000E0196000232361754616E07A
:10ABC0001A68111D1960156862680021284600F096
:10ABD0004FF808B1401B6060636804E004F142056F
:10ABE00084F8422001232361002384F84330CDF808
:10ABF00000803B4603AA21463046FFF797FE01300E
:10AC000002D14FF0FF3026E023692A46394630460C
:10AC1000C0470130F5D023689B0710D5002504F10B
:10AC2000190907E001234A4639463046C04701303A
:10AC3000E7D00135E368039A9B1A9D42F2DBE06896
:10AC4000039B9842B8BF184605E00B7884F8423061
:10AC500004F142058AE705B0BDE8F083F5B10008CC
:10AC600006B2000800000000000000000000000024
:10AC700001F0FF01102A2BDB10F0070F08D010F8AD
:10AC8000013B013A8B422DD010F0070F42B3F6D1B1
:10AC9000F0B441EA012141EA014122F007047FF0CA
:10ACA00000070023F0E80256083C85EA010586EA21
:10ACB000010685FA47F5A3FA87F586FA47F6A5FA5D
:10ACC00087F68EB9EED1F0BC01F0FF0102F0070269
:10ACD00032B110F8013B013A83EA010313B1F8D114
:10ACE0000020704701387047002D06BF35460338F5
:10ACF000073815F0010F07D1013015F4807F02BF2E
:10AD0000013015F4C03F0130F0BC0138704700BF7E
:10AD100010B5431E0A44914204D011F8014B03F8C8
:10AD2000014FF8E710BD884210B501EB020301D8CE
:10AD3000421E0BE09842FBD28118D21AD34204D0B3
:10AD400013F8014D01F8014DF8E710BD994204D008
:10AD500011F8014B02F8014FF8E710BD38B5054670
:10AD6000002946D051F8043C0C1F002BB8BFE41852
:10AD700000F0D6F81F4A1368114613B963601460D7
:10AD800032E0A3420ED92268A018834204BF18689B
:10AD90005B68636004BF121822600C6024E0A2426A
:10ADA00003D813465A68002AF9D118681918A14225
:10ADB0000BD12168014458188242196014D11068DF
:10ADC00052685A60014419600EE002D90C232B60CE
:10ADD0000AE021686018824204BF1068526862600D
:10ADE00004BF091821605C602846BDE8384000F0C7
:10ADF00098B838BDA001002070B5CD1C25F0030522
:10AE000008350C2D38BF0C25002D064601DBA94264
:10AE100002D90C23336046E000F082F8234B1C6813
:10AE20001A462146A1B10B685B1B0ED40B2B03D92C
:10AE30000B60CC18CD501EE08C420DBF63684B6890
:10AE40006360136018BF0C4615E00C464968E9E7DB
:10AE5000174C23681BB9304600F052F82060294691
:10AE6000304600F04DF8431C18D0C41C24F00304F5
:10AE7000A0420DD12560304600F053F804F10B00DC
:10AE8000231D20F00700C31A0ED05A42E25070BDB5
:10AE9000211A304600F034F80130EBD10C23336036
:10AEA000304600F03EF8002070BD00BFA001002039
:10AEB0009C010020F8B5074615460E4621B91146FB
:10AEC000BDE8F840FFF798BF1AB9FFF747FF2846DB
:10AED000F8BD00F027F885420ED929463846FFF71D
:10AEE0008BFF044650B131462A46FFF711FF314629
:10AEF0003846FFF733FF01E03046F8BD2046F8BD85
:10AF000038B5064C0023054608462360FDF78AFA4B
:10AF1000431C02D1236803B12B6038BDA40100207B
:10AF20007047704751F8040C0028BEBF091851F84B
:10AF3000043CC01804387047537461636B20667218
:10AF4000616D653A0A000000205230203D20202526
:10AF50003038580A00000000205231203D202025C2
:10AF60003038580A00000000205232203D202025B1
:10AF70003038580A00000000205233203D202025A0
:10AF80003038580A0000000020523132203D202580
:10AF90003038580A00000000204C52203D20202567
:10AFA0003038580A00000000205043203D20202562
:10AFB0003038580A0000000020505352203D202510
:10AFC0003038580A000000004653522F4641523A8A
:10AFD0000A0000002043465352203D2020253038EF
:10AFE000580A00002048465352203D202025303882
:10AFF000580A00002044465352203D202025303876
:10B00000580A00002041465352203D202025303868
:10B01000580A0000204D4D464152203D2025303831
:10B02000580A00002042464152203D202025303859
:10B03000580A00004D6973630A000000204C522F2B
:10B040004558435F52455455524E3D20253038589F
:10B050000A0000005B486172644661756C745D0AA9
:10B06000000000005B4275734661756C745D0A00F8
:10B070005B55736167654661756C745D0A0000001D
:10B080000000000000000000010203040607080998
:10B090000004024020000000000802400080000080
:10B0A0000008024000400000000402404000000090
:10B0B0000004024080000000000402400001000083
:10B0C00000040240000200000004024000040240AC
:10B0D00000040240000402400100020004000004D9
:10B0E0000000024080000000000802400000000054
:10B0F00000000240010000000000024002000000C9
:10B1000000000240040000000000024008000000AF
:10B11000000002401000000000000240200000007B
:10B1200000000240400000003132333435363738F9
:10B13000392A3023000802400000024000100010AD
:10B14000000802400020000032323232456E746541
:10B15000722050617373776F7264000057656C637F
:10B160006F6D65204954490057696E646F773A20C6
:10B17000507265737320310046616E3A20507265DB
:10B180007373203200000000506173732E206973C6
:10B190002057726F6E67210057696E646F77207059
:10B1A000657263656E74000066726F6D2030207486
:10B1B0006F203130302E00005072657373202A20CA
:10B1C000746F20656E643A004F6E3A20507265735A
:10B1D000732031004F66663A2050726573732032D7
:10B1E00000000000232D302B2000686C4C006566A9
:10B1F00067454647003031323334353637383941C8
:10B2000042434445460030313233343536373839DD
:07B2100061626364656600E2
:10B218007856341288000020000000000024F40052
:10B228002C012C012C01FFFF000000000000000091
:10B238000000000000000000000000000000000006
:10B2480000000000000000000000000000000000F6
:10B2580000000000000000000000000000000000E6
:10B2680000000000000000000000000000000000D6
:10B2780000000000000000000000000000000000C6
:10B2880000000000000000001800002032547698EA
:0400000508008195D9
:00000001FF
